:020000040800F2
:100000000000012009350008993200089F320008DD
:10001000B7320008BD320008C332000800000000FB
:100020000000000000000000000000003175000822
:10003000C93200080000000081770008E977000855
:100040005935000859350008593500085935000858
:10005000593500085935000859350008D7320008CD
:10006000E5320008F3320008013300085935000872
:100070005935000859350008593500085935000828
:1000800059350008593500085935000800000000AE
:100090000000000000000000000000000F33000816
:1000A0002133000859350008593500085935000832
:1000B000353300085935000859350008593500080E
:1000C00059350008593500085935000859350008D8
:1000D000593500085935000859350008000000005E
:1000E0004933000859350008593500080000000060
:1000F000000000000000000000000000593500086A
:10010000000000005935000859350008593500082D
:1001100000000000000000000000000000000000DF
:100120005935000859350008593500085935000877
:100130005935000800000000000000000000000029
:100140000000000000000000000000005935000819
:100150005935000859350008593500085935000847
:100160005935000859350008000000000000000063
:10017000000000000000000000000000000000007F
:1001800000000000593500080000000000000000D9
:0401900059350008D5
:1001A00010B5054C237833B9044B13B10448AFF3B1
:1001B00000800123237010BD140300200000000004
:1001C00004AB000808B5034B1BB103490348AFF368
:1001D000008008BD000000001803002004AB0008E8
:1001E000034613F8012B002AFBD1181A0138704777
:1001F00001F0FF01102A2BDB10F0070F08D010F8D8
:10020000013B013A8B422DD010F0070F42B3F6D1DB
:10021000F0B441EA012141EA014122F007047FF0F4
:1002200000070023F0E80256083C85EA010586EA4B
:10023000010685FA47F5A3FA87F586FA47F6A5FA87
:1002400087F68EB9EED1F0BC01F0FF0102F0070293
:1002500032B110F8013B013A83EA010313B1F8D13E
:100260000020704701387047002D06BF354603381F
:10027000073815F0010F07D1013015F4807F02BF58
:10028000013015F4C03F0130F0BC0138704700BFA9
:1002900081F0004102E000BF83F0004330B54FEA37
:1002A00041044FEA430594EA050F08BF90EA020FA4
:1002B0001FBF54EA000C55EA020C7FEA645C7FEA37
:1002C000655C00F0E2804FEA5454D4EB5555B8BF5A
:1002D0006D420CDD2C4480EA020281EA030382EACB
:1002E000000083EA010180EA020281EA0303362D5D
:1002F00088BF30BD11F0004F4FEA01314FF4801C30
:100300004CEA113102D0404261EB410113F0004F41
:100310004FEA03334CEA133302D0524263EB4303F8
:1003200094EA050F00F0A780A4F10104D5F1200E96
:100330000DDB02FA0EFC22FA05F2801841F10001F1
:1003400003FA0EF2801843FA05F359410EE0A5F1C5
:1003500020050EF1200E012A03FA0EFC28BF4CF0F6
:10036000020C43FA05F3C01851EBE37101F00045AC
:1003700007D54FF0000EDCF1000C7EEB00006EEBB9
:100380000101B1F5801F1BD3B1F5001F0CD3490843
:100390005FEA30004FEA3C0C04F101044FEA44529A
:1003A00012F5800F80F09A80BCF1004F08BF5FEA21
:1003B000500C50F1000041EB045141EA050130BD01
:1003C0005FEA4C0C404141EB0101013C28BFB1F513
:1003D000801FE9D291F0000F04BF01460020B1FA5E
:1003E00081F308BF2033A3F10B03B3F120020CDA31
:1003F0000C3208DD02F1140CC2F10C0201FA0CF00F
:1004000021FA02F10CE002F11402D8BFC2F1200C73
:1004100001FA02F120FA0CFCDCBF41EA0C01904029
:10042000E41AA2BF01EB0451294330BD6FEA040472
:100430001F3C1CDA0C340EDC04F11404C4F120025D
:1004400020FA04F001FA02F340EA030021FA04F36F
:1004500045EA030130BDC4F10C04C4F1200220FAC6
:1004600002F001FA04F340EA0300294630BD21FA04
:1004700004F0294630BD94F0000F83F4801306BFCA
:1004800081F480110134013D4EE77FEA645C18BFBE
:100490007FEA655C29D094EA050F08BF90EA020F55
:1004A00005D054EA000C04BF1946104630BD91EA4D
:1004B000030F1EBF0021002030BD5FEA545C05D150
:1004C0004000494128BF41F0004130BD14F580048F
:1004D0003CBF01F5801130BD01F0004545F0FE4103
:1004E00041F470014FF0000030BD7FEA645C1ABF38
:1004F000194610467FEA655C1CBF0B46024650EA6F
:10050000013406BF52EA033591EA030F41F400219A
:1005100030BD00BF90F0000F04BF0021704730B520
:100520004FF4806404F132044FF000054FF00001F5
:1005300050E700BF90F0000F04BF0021704730B5B6
:100540004FF4806404F1320410F0004548BF40428B
:100550004FF000013EE700BF42004FEAE2014FEAE0
:1005600031014FEA02701FBF12F07F4393F07F4FBB
:1005700081F06051704732F07F4208BF704793F0BE
:100580007F4F04BF41F40021704730B54FF46074D1
:1005900001F0004521F000411CE700BF50EA0102D4
:1005A00008BF704730B54FF000050AE050EA01027D
:1005B00008BF704730B511F0004502D5404261EBED
:1005C00041014FF4806404F132045FEA915C3FF42E
:1005D000D8AE4FF003025FEADC0C18BF03325FEACB
:1005E000DC0C18BF033202EBDC02C2F1200300FA7C
:1005F00003FC20FA02F001FA03FE40EA0E0021FAA1
:1006000002F11444BDE600BF70B54FF0FF0C4CF48E
:10061000E06C1CEA11541DBF1CEA135594EA0C0F40
:1006200095EA0C0F00F0DEF82C4481EA030621EA7B
:100630004C5123EA4C5350EA013518BF52EA0335B6
:1006400041F4801143F4801338D0A0FB02CE4FF068
:100650000005E1FB02E506F00042E0FB03E54FF098
:100660000006E1FB03569CF0000F18BF4EF0010E90
:10067000A4F1FF04B6F5007F64F5407404D25FEA8C
:100680004E0E6D4146EB060642EAC62141EA55513F
:100690004FEAC52040EA5E504FEACE2EB4F1FD0C81
:1006A00088BFBCF5E06F1ED8BEF1004F08BF5FEAFF
:1006B000500E50F1000041EB045170BD06F00046B1
:1006C00046EA010140EA020081EA0301B4EB5C045E
:1006D000C2BFD4EB0C0541EA045170BD41F4801156
:1006E0004FF0000E013C00F3AB8014F1360FDEBF7B
:1006F000002001F0004170BDC4F10004203C35DA57
:100700000C341BDC04F11404C4F1200500FA05F3D9
:1007100020FA04F001FA05F240EA020001F000427A
:1007200021F0004110EBD37021FA04F642EB0601F0
:100730005EEA430E08BF20EAD37070BDC4F10C041A
:10074000C4F1200500FA04F320FA05F001FA04F2DE
:1007500040EA020001F0004110EBD37041F10001CA
:100760005EEA430E08BF20EAD37070BDC4F12005D5
:1007700000FA05F24EEA020E20FA04F301FA05F23D
:1007800043EA020321FA04F001F0004121FA04F2E5
:1007900020EA020000EBD3705EEA430E08BF20EAB5
:1007A000D37070BD94F0000F0FD101F000464000EF
:1007B00041EB010111F4801F08BF013CF7D041EA71
:1007C000060195F0000F18BF704703F00046520075
:1007D00043EB030313F4801F08BF013DF7D043EA46
:1007E0000603704794EA0C0F0CEA135518BF95EAFC
:1007F0000C0F0CD050EA410618BF52EA4306D1D183
:1008000081EA030101F000414FF0000070BD50EAA1
:10081000410606BF1046194652EA430619D094EA2B
:100820000C0F02D150EA013613D195EA0C0F05D115
:1008300052EA03361CBF104619460AD181EA030169
:1008400001F0004141F0FE4141F470014FF0000021
:1008500070BD41F0FE4141F4780170BD70B54FF0BC
:10086000FF0C4CF4E06C1CEA11541DBF1CEA13553C
:1008700094EA0C0F95EA0C0F00F0A7F8A4EB05041E
:1008800081EA030E52EA03354FEA013100F0888015
:100890004FEA03334FF0805545EA131343EA1263DE
:1008A0004FEA022245EA111545EA10654FEA002693
:1008B0000EF000419D4208BF964244F1FD0404F54C
:1008C000407402D25B084FEA3202B61A65EB0305A8
:1008D0005B084FEA32024FF480104FF4002CB6EB65
:1008E000020E75EB030E22BFB61A754640EA0C00E5
:1008F0005B084FEA3202B6EB020E75EB030E22BF25
:10090000B61A754640EA5C005B084FEA3202B6EB65
:10091000020E75EB030E22BFB61A754640EA9C0024
:100920005B084FEA3202B6EB020E75EB030E22BFF4
:10093000B61A754640EADC0055EA060E18D04FEAB2
:10094000051545EA16754FEA06164FEAC30343EA52
:1009500052734FEAC2025FEA1C1CC0D111F4801F1F
:100960000BD141EA00014FF000004FF0004CB6E718
:1009700011F4801F04BF01430020B4F1FD0C88BFB7
:10098000BCF5E06F3FF6AFAEB5EB030C04BFB6EBC2
:10099000020C5FEA500C50F1000041EB045170BDB5
:1009A0000EF0004E4EEA113114EB5C04C2BFD4EBE2
:1009B0000C0541EA045170BD41F480114FF0000E66
:1009C000013C90E645EA060E8DE60CEA135594EAE2
:1009D0000C0F08BF95EA0C0F3FF43BAF94EA0C0FE5
:1009E0000AD150EA01347FF434AF95EA0C0F7FF45A
:1009F00025AF104619462CE795EA0C0F06D152EAAE
:100A000003353FF4FDAE1046194622E750EA410691
:100A100018BF52EA43067FF4C5AE50EA41047FF4A2
:100A20000DAF52EA43057FF4EBAE12E74FF0FF3C07
:100A300006E000BF4FF0010C02E000BF4FF0010CD8
:100A40004DF804CD4FEA410C7FEA6C5C4FEA430C51
:100A500018BF7FEA6C5C1BD001B050EA410C0CBFA0
:100A600052EA430C91EA030F02BF90EA020F002002
:100A7000704710F1000F91EA030F58BF994208BF69
:100A800090422CBFD8176FEAE37040F00100704726
:100A90004FEA410C7FEA6C5C02D150EA013C07D17D
:100AA0004FEA430C7FEA6C5CD6D152EA033CD3D0C8
:100AB0005DF8040B704700BF8446104662468C46C2
:100AC0001946634600E000BF01B5FFF7B7FF0028F5
:100AD00048BF10F1000F01BD4DF808EDFFF7F4FF1E
:100AE0000CBF012000205DF808FB00BF4DF808EDA9
:100AF000FFF7EAFF34BF012000205DF808FB00BFCC
:100B00004DF808EDFFF7E0FF94BF012000205DF8ED
:100B100008FB00BF4DF808EDFFF7CEFF94BF0120A2
:100B200000205DF808FB00BF4DF808EDFFF7C4FF9B
:100B300034BF012000205DF808FB00BF4FEA410CE4
:100B40007FEA6C5C02D150EA013C0AD14FEA430CC7
:100B50007FEA6C5C02D152EA033C02D14FF0000004
:100B600070474FF0010070474FEA410212F5001242
:100B700015D211D56FF47873B3EB625212D94FEAE4
:100B8000C12343F0004343EA505311F0004F23FACE
:100B900002F018BF404270474FF00000704750EA23
:100BA000013005D111F0004008BF6FF000407047E0
:100BB0004FF00000704700BF4A0011D212F500123A
:100BC00011D20DD56FF47873B3EB62520ED44FEAA5
:100BD000C12343F0004343EA505323FA02F0704725
:100BE0004FF00000704750EA013002D14FF0FF3063
:100BF00070474FF0000070474FEA4102B2F1E04306
:100C000024BFB3F5001CDCF1FE5C0DD901F0004CF3
:100C10004FEAC0024CEA5070B2F1004F40EB830043
:100C200008BF20F00100704711F0804F21D113F16F
:100C30003872BCBF01F00040704741F480114FEAA8
:100C40005252C2F11802C2F1200C10FA0CF320FA31
:100C500002F018BF40F001004FEAC1234FEAD3234E
:100C600003FA0CFC40EA0C0023FA02F34FEA4303B8
:100C7000CCE77FEA625307D150EA01331EBF4FF041
:100C8000FE4040F44000704701F0004040F0FE405C
:100C900040F40000704700BF53B94AB9002908BFAB
:100CA00000281CBF4FF0FF314FF0FF3000F074B947
:100CB000ADF1080C6DE904CE00F006F8DDF804E0B3
:100CC000DDE9022304B070472DE9F047089D044692
:100CD0008E46002B4DD18A42944669D9B2FA82F2EF
:100CE00052B101FA02F3C2F1200120FA01F10CFA2B
:100CF00002FC41EA030E94404FEA1C48210CBEFB63
:100D0000F8F61FFA8CF708FB16E341EA034306FBEB
:100D100007F199420AD91CEB030306F1FF3080F07A
:100D20001F81994240F21C81023E63445B1AA4B2C7
:100D3000B3FBF8F008FB103344EA034400FB07F769
:100D4000A7420AD91CEB040400F1FF3380F00A81AA
:100D5000A74240F207816444023840EA0640E41B9F
:100D600000261DB1D4400023C5E900433146BDE84B
:100D7000F0878B4209D9002D00F0EF800026C5E9ED
:100D8000000130463146BDE8F087B3FA83F6002E05
:100D90004AD18B4202D3824200F2F980841A61EB7D
:100DA000030301209E46002DE0D0C5E9004EDDE79B
:100DB00002B9FFDEB2FA82F2002A40F09280A1EB83
:100DC0000C014FEA1C471FFA8CFE0126200CB1FBD8
:100DD000F7F307FB131140EA01410EFB03F08842D1
:100DE00008D91CEB010103F1FF3802D2884200F25E
:100DF000CB804346091AA4B2B1FBF7F007FB1011F0
:100E000044EA01440EFB00FEA64508D91CEB04048D
:100E100000F1FF3102D2A64500F2BB800846A4EBE8
:100E20000E0440EA03409CE7C6F12007B34022FAD3
:100E300007FC4CEA030C20FA07F401FA06F31C4302
:100E4000F9404FEA1C4900FA06F3B1FBF9F8200C0F
:100E50001FFA8CFE09FB181140EA014108FB0EF055
:100E6000884202FA06F20BD91CEB010108F1FF3AA5
:100E700080F08880884240F28580A8F102086144B1
:100E8000091AA4B2B1FBF9F009FB101144EA0141BF
:100E900000FB0EFE8E4508D91CEB010100F1FF346A
:100EA0006CD28E456AD90238614440EA0840A0FB02
:100EB0000294A1EB0E01A142C846A64656D353D0D8
:100EC0005DB1B3EB080261EB0E0101FA07F722FAFC
:100ED00006F3F1401F43C5E9007100263146BDE825
:100EE000F087C2F12003D8400CFA02FC21FA03F388
:100EF000914001434FEA1C471FFA8CFEB3FBF7F009
:100F000007FB10360B0C43EA064300FB0EF69E422D
:100F100004FA02F408D91CEB030300F1FF382FD2C6
:100F20009E422DD9023863449B1B89B2B3FBF7F66E
:100F300007FB163341EA034106FB0EF38B4208D947
:100F40001CEB010106F1FF3816D28B4214D9023E88
:100F50006144C91A46EA004638E72E46284605E7A6
:100F60000646E3E61846F8E64B45A9D2B9EB020877
:100F700064EB0C0E0138A3E74646EAE7204694E707
:100F80004046D1E7D0467BE7023B614432E730463A
:100F900009E76444023842E7704700BF80B500AFFC
:100FA000054B00225A62054B00225A61044803F0A7
:100FB000CBFD00BF80BD00BF000400400004024024
:100FC000E805002080B582B000AF034687ED000A37
:100FD000FB71FB79032B02D0FB79042B0DD1DFEDE4
:100FE0002D6AD7ED007A86EEA77ADFED2B6AC7EE81
:100FF000267A2A4BC3ED007A20E0FB79012B0DD134
:10100000DFED246AD7ED007A86EEA77ADFED246A59
:10101000C7EE267A214BC3ED007A0FE0FB79022B55
:101020000CD1DFED1C6AD7ED007A86EEA77ADFEDF2
:101030001D6AC7EE267A194BC3ED007A174B1B6861
:101040001846FFF789FA4FF00002174BFFF706FC2E
:1010500002460B4610461946FFF7AEFD03469AB20C
:10106000124B1A80124B00229A62104B1A88104BB6
:10107000DA620F4B00225A620E4803F003FD0C4B5C
:101080001B690B4A23F00103136100BF0837BD46FB
:1010900080BD00BF00007A4400004C4230030020B5
:1010A0000000CC42000080430000903F3403002049
:1010B00000040040E805002080B483B000AF0023A6
:1010C0007B6014E00F4B1B6903F00103002B0ED073
:1010D0000C4B1B690B4A23F0010313610A4A7B681E
:1010E00013441A78094B5A617B6801337B607B6833
:1010F000FF2BE7D900BF00BF0C37BD465DF8047B6E
:10110000704700BF000400400000002000040240BF
:1011100080B483B000AF00237B6011E0184B1B69E3
:1011200003F00103002B0BD0154B1B69144A23F06D
:1011300001031361134A7B6853617B6805337B604D
:101140007B68FE2BEADD11E00D4B1B6903F0010308
:10115000002B0BD00A4B1B69094A23F001031361D2
:10116000084A7B6853617B68053B7B607B68002B8A
:10117000EADC00BF00BF0C37BD465DF8047B70475A
:10118000000400400004024080B483B000AF00239C
:101190007B6011E00D4B1B6903F00103002B0BD0AA
:1011A0000B4A7B685361094B1B69084A23F0010312
:1011B00013617B6805337B607B68FF2BEADD00BF32
:1011C00000BF0C37BD465DF8047B7047000400404B
:1011D0000004024080B483B000AFFF237B6011E0C5
:1011E0000D4B1B6903F00103002B0BD00B4A7B68EE
:1011F0005361094B1B69084A23F0010313617B68A3
:10120000053B7B607B68002BEADC00BF00BF0C372E
:10121000BD465DF8047B70470004004000040240B6
:1012200080B584B000AF03460A46FB711346BB711C
:10123000FB793B73BB797B7300224FF480710C48C0
:1012400002F07EFC07F10C014FF47A730222094888
:1012500003F0C1F90346FB7301224FF48071044887
:1012600002F06EFCFB7B18461037BD4680BD00BF08
:10127000000002409005002080B582B000AF034618
:10128000FB710B4B1B681B7BFA799A420AD0084B07
:101290001B68FA791A73FB7919460920FFF7C0FF1A
:1012A000034600E0002318460837BD4680BD00BF56
:1012B0003803002080B483B000AF0346FB71FB7994
:1012C0005A2B00F2178101A252F823F039140008BA
:1012D0003D14000841140008451400084914000892
:1012E0004D14000851140008551400085914000842
:1012F0005D140008F5140008F5140008F514000842
:10130000F5140008F5140008F5140008F514000899
:10131000F5140008F5140008F5140008F514000889
:10132000F5140008F5140008F5140008F514000879
:10133000F5140008F5140008F5140008F514000869
:10134000F5140008F5140008F5140008F514000859
:10135000F5140008F5140008F5140008F514000849
:10136000F5140008F5140008F5140008F514000839
:10137000F5140008F5140008F5140008F514000829
:10138000F1140008F5140008F514000861140008B1
:1013900065140008691400086D1400087114000831
:1013A00075140008791400087D14000881140008E1
:1013B00085140008F5140008F5140008F514000859
:1013C000F5140008F5140008F5140008F5140008D9
:1013D000891400088D140008911400089514000861
:1013E000991400089D140008A1140008A514000811
:1013F000A9140008AD140008B1140008B5140008C1
:10140000B9140008BD140008C1140008C514000870
:10141000C9140008CD140008D1140008D514000820
:10142000D9140008DD140008E1140008E5140008D0
:10143000E9140008ED1400087E235CE030235AE034
:101440006D2358E0792356E0332354E05B2352E0C8
:101450005F2350E070234EE07F234CE07B234AE083
:101460007E2348E0302346E06D2344E0792342E0C8
:10147000332340E05B233EE05F233CE070233AE00F
:101480007F2338E07B2336E0772334E01F2332E0EC
:101490004E2330E03D232EE04F232CE047232AE06B
:1014A0005E2328E0372326E0302324E03C2322E09B
:1014B0002F2320E00E231EE055231CE015231AE005
:1014C0001D2318E0672316E0732314E0052312E0C0
:1014D0005B2310E00F230EE03E230CE01C230AE008
:1014E0005C2308E0492306E03B2304E06D2302E08F
:1014F000012300E0002318460C37BD465DF8047B4D
:10150000704700BF80B582B000AF03460A46FB714A
:101510001346BB71BB791846FFF7CCFE03461A464B
:10152000FB7911461846FFF77BFE00BF0837BD4622
:1015300080BD80B584B000AF03463960FB710823DD
:10154000FB603868FEF74CFE0346082B22D80020CB
:10155000FFF792FE0023FB7215E0FB79FA689A42CE
:101560001AD0FB68DAB2FB79D31AD8B2FB7A3A68A0
:1015700013441B781946FFF7C5FFFB68013BFB606E
:10158000FB7A0133FB72FB7A3A6813441B78002B19
:10159000E3D102E000BF00E000BF1037BD4680BDD0
:1015A00080B584B000AF78600823FB607868FEF7F0
:1015B00017FE0346082B1BD80020FFF75DFE002313
:1015C000FB720EE0FB68D8B2FB7A7A6813441B7892
:1015D0001946FFF797FFFB68013BFB60FB7A01337D
:1015E000FB72FB7A7A6813441B78002BEAD100E087
:1015F00000BF1037BD4680BD90B587B000AF87ED06
:10160000010A08237B617868FEF7A6FF02460B46B5
:1016100007F10800264907F00BF80023FB7434E0BB
:10162000FB7C013318333B4413F8103C2E2B12D1B2
:101630007B69DCB2FB7C18333B4413F8103C184642
:10164000FFF738FE034663F07F03DBB219462046FE
:10165000FFF7E6FD11E0FB7C18333B4413F8103C28
:101660002E2B0ED07B69DAB2FB7C18333B4413F887
:10167000103C19461046FFF745FF7B69013B7B6133
:1016800000E000BFFB7C0133FB74FB7C18333B4460
:1016900013F8103C002BC3D107F108031846FEF7DE
:1016A0009FFD0346DBB218461C37BD4690BD00BF08
:1016B00028AB000880B584B000AF87ED010A97ED34
:1016C000010AFFF799FF0346FB73FB7B18461037AF
:1016D000BD4680BD80B584B000AF87ED010A97EDAF
:1016E000010AFFF789FF0346FB73FB7B0449184699
:1016F000FFF71FFFFB7B18461037BD4680BD00BFBC
:1017000030AB000880B582B000AF0346FB71FB79B7
:1017100003491846FFF70DFF00BF0837BD4680BDDF
:1017200034AB000880B582B000AF0123FB7107E045
:10173000FB7900211846FFF773FDFB790133FB713C
:10174000FB79082BF4D900BF00BF0837BD4680BD28
:1017500080B584B000AF7860124A7B681360114B8B
:101760001B681B7B19460920FFF75AFD0D4B1B68B0
:101770005B7B19460A20FFF753FD0A4B1B689B7BD6
:1017800019460B20FFF74CFD01210C20FFF748FD07
:101790000346FB73FFF7C6FFFB7B18461037BD46B9
:1017A00080BD00BF3803002080B584B000AF87ED56
:1017B000010AC7ED000ADFED186A97ED017AC6EE5F
:1017C000877AFCEEE77A17EE903AFB60FB6807EE4B
:1017D000903AB8EE677AD7ED007A27EE277ADFEDF8
:1017E0000F6AC7EE267AFCEEE77A17EE903ABB60F6
:1017F0000B4B00229A620A4B00225A62084AFB688D
:10180000D362074ABB6853630021064803F024FAF9
:1018100000BF1037BD4680BD00007A470000C842B7
:10182000000C00403006002080B500AF044B0022C1
:101830005A620021034803F0BFFA00BF80BD00BF19
:10184000000C00403006002080B485B000AFF86086
:10185000B9607A60FB68074A1A60BB68064A1A607A
:101860007B6880221A6000BF1437BD465DF8047B98
:10187000704700BF3C0300209003002080B582B079
:1018800000AF0346FB800E4AFB8813800D4803F02F
:10189000F9F8282001F0AAFF172001F0A7FF072080
:1018A00001F0A4FF082001F0A1FF0A2001F09EFF33
:1018B000092001F09BFF00BF0837BD4680BD00BF77
:1018C000DE06002078060020B0B5ACB000AF01F015
:1018D00045FE00F0D5F800F071FA00F03BF900F099
:1018E0006FF900F031FA00F0B9F9524B07F1A0049A
:1018F0000FCB84E80F0007F1A0031846FFF728FF7D
:10190000FFF710FF4C48FFF74BFE00224FF4006139
:101910004A4802F015F9002202210A2004F0F4FAE4
:101920000346474A1360002209210A2004F0ECFA1A
:101930000346444A1360002204210A2004F0E4FA1A
:101940000346414A1360002204210A2004F0DCFA15
:1019500003463E4A13603E4B07F190040FCB84E8E8
:101960000F0007F190030021184604F010F9034618
:10197000384A1360384B07F174041D460FCD0FC46D
:1019800095E8070084E8070007F174030021184672
:1019900004F09DF80346314A1360314B07F15804B7
:1019A0001D460FCD0FC495E8070084E8070007F136
:1019B00058030021184604F08AF80346294A1360A8
:1019C000294B07F13C041D460FCD0FC495E80700D5
:1019D00084E8070007F13C030021184604F077F87B
:1019E0000346224A1360224B07F120041D460FCD07
:1019F0000FC495E8070084E8070007F120030021E1
:101A0000184604F064F803461A4A13601A4B3C1D4A
:101A10001D460FCD0FC495E8070084E807003B1D65
:101A20000021184604F053F80346144A136004F0EA
:101A300047F8FEE780AB000874AB000800000240E6
:101A4000E0060020E4060020E8060020EC06002066
:101A500090AB0008D4060020A0AB0008C006002010
:101A6000BCAB0008C4060020D8AB0008C8060020A4
:101A7000F4AB0008CC06002010AC0008D006002013
:101A800080B594B000AF07F1200330220021184642
:101A900006F05CF907F10C0300221A605A609A60A4
:101AA000DA601A610023BB60284B1B6C274A43F0A5
:101AB00080531364254B1B6C03F08053BB60BB68E1
:101AC00000237B60224B1B6823F44043204A43F4ED
:101AD000004313601E4B1B6803F440437B607B682C
:101AE00001233B624FF480337B620223BB634FF4DC
:101AF0008003FB6319233B6480237B640223BB6464
:101B00000423FB6407F12003184602F065F803463E
:101B1000002B01D001F03CFA0F23FB6002233B6154
:101B200000237B614FF48053BB610023FB6107F10D
:101B30000C030221184602F0C7FA0346002B01D01D
:101B400001F026FA00BF5037BD4680BD0038024084
:101B50000070004080B500AF174B184A1A60164B52
:101B60004FF482725A60144B00229A60124B00228A
:101B7000DA60114B00221A610F4B00225A610E4BA2
:101B80004FF400729A610C4B0822DA610A4B002272
:101B90001A62094B00225A62074B00229A62064BD6
:101BA0000A22DA62044802F08DFC0346002B01D0C1
:101BB00001F0EEF900BF80BD90050020003001402B
:101BC00080B586B000AF07F1080300221A605A60A2
:101BD0009A60DA603B4600221A605A601D4B1E4A2A
:101BE0001A601C4B00225A601A4B00229A60194B53
:101BF0004FF6E852DA60174B00221A61154B0022AB
:101C00009A61144802F0EEFE0346002B01D001F069
:101C1000BFF94FF48053BB6007F1080319460D4824
:101C200003F0F8FA0346002B01D001F0B1F90023CC
:101C30003B6000237B603B461946064803F0A6FE46
:101C40000346002B01D001F0A3F900BF1837BD46B1
:101C500080BD00BFE80500200004004080B58EB0C4
:101C600000AF07F1280300221A605A609A60DA6018
:101C700007F1200300221A605A603B1D00221A60FF
:101C80005A609A60DA601A615A619A612C4B2D4A47
:101C90001A602B4B00225A60294B00229A60284B75
:101CA0004FF0FF32DA60264B00221A61244B0022EB
:101CB0009A61234802F096FE0346002B01D001F002
:101CC00067F94FF48053BB6207F1280319461C489B
:101CD00003F0A0FA0346002B01D001F059F918488F
:101CE00002F061FF0346002B01D001F051F90023FF
:101CF0003B6200237B6207F120031946104803F082
:101D000045FE0346002B01D001F042F960237B60C1
:101D10000023BB600023FB6000237B613B1D00228E
:101D20001946074803F0B4F90346002B01D001F02F
:101D30002FF9034801F0FAF900BF3837BD4680BDDE
:101D400030060020000C004080B584B000AF3B4658
:101D500000221A605A609A60DA60164B164A1A60BE
:101D6000144B40F27F225A60124B00229A60114BB2
:101D700042F20F72DA600F4B00221A610D4B002203
:101D80009A610C4802F02EFE0346002B01D001F0B0
:101D9000FFF84FF480533B603B461946054803F07B
:101DA00039FA0346002B01D001F0F2F800BF1037DA
:101DB000BD4680BD780600200040014080B58AB055
:101DC00000AF07F1140300221A605A609A60DA60CB
:101DD0001A6100233B61624B1B6B614A43F00403B1
:101DE00013635F4B1B6B03F004033B613B690023F0
:101DF000FB605B4B1B6B5A4A43F080031363584BE9
:101E00001B6B03F08003FB60FB680023BB60544B3B
:101E10001B6B534A43F001031363514B1B6B03F0DD
:101E20000103BB60BB6800237B604D4B1B6B4C4ABE
:101E300043F0020313634A4B1B6B03F002037B6006
:101E40007B6800224FF40051464801F079FE0022E1
:101E5000FF21454801F074FE00224FF41061434811
:101E600001F06EFE4FF400537B610123BB61002340
:101E7000FB6100233B6207F114031946394801F066
:101E8000C3FC40F21E637B614FF40413BB6101236A
:101E9000FB6107F114031946344801F0B5FCFF2338
:101EA0007B610123BB610023FB6100233B6207F1DF
:101EB000140319462C4801F0A7FC4FF480737B6192
:101EC0000123BB610023FB6101233B6207F1140383
:101ED0001946264801F098FC4FF400637B6101230A
:101EE000BB610023FB6100233B6207F11403194629
:101EF0001E4801F089FC00220521072001F04CFC5E
:101F0000072001F065FC00220521082001F044FCB7
:101F1000082001F05DFC00220521092001F03CFCB5
:101F2000092001F055FC002205210A2001F034FCB3
:101F30000A2001F04DFC00220521172001F02CFCA5
:101F4000172001F045FC00220521282001F024FC87
:101F5000282001F03DFC00BF2837BD4680BD00BFF2
:101F60000038024000080240000402400000024025
:101F700080B582B000AF7860012003F0F4FDFBE78C
:101F800080B588B000AF78600023BB774FF07E53F8
:101F9000BB619A4B7B610023BB6007F10C030022FD
:101FA0001A601A710023FB770023BB83944B1B68D4
:101FB00007F11C016422184604F09AF9BB8BB3F5B3
:101FC000806F00F02083B3F5806F00F3DF85102B66
:101FD00028DC022BC0F2DA85023B0E2B00F2D685FC
:101FE00001A252F823F000BF312000088D2B000819
:101FF000412100088D2B00088D2B00088D2B000837
:10200000EB2800088D2B00088D2B00088D2B000875
:102010008D2B00088D2B00088D2B00088D2B0008C0
:10202000392B0008B3F5007F00F0348100F0AEBD1D
:10203000744B1B78002B1AD0FB7F002B01D1724A06
:1020400000E0724A07F108037149184606F0F0FAF9
:10205000FB7F002B0CBF01230023DBB2FB776D4B12
:10206000186807F1080100230A2203F0A7FF6A4B52
:102070001B78002B22D0694B1B780133DAB2674BF7
:102080001A70664B1B78042B02D9644B01221A701C
:10209000624B1B785A1E1346DB001344604A1A44F5
:1020A00007F108035A49184606F0C2FA594B186856
:1020B00007F1080100230A2203F080FF594B1B7827
:1020C000002B1FD0584B1B780133DAB2564B1A70D5
:1020D000554B1A78554B1B789A4202D9524B012224
:1020E0001A70FB7F002B02D1514B1B6801E0514B52
:1020F0001B68BB61504B186807F1180100230A22C6
:1021000003F05CFF4D4B1B78002B00F03685464BEF
:102110001B780133DAB2444B1A70434B1A78434BA5
:102120001B789A4202D9404B01221A70444B18681E
:1021300007F1140100230A2203F040FF00F01DBD47
:10214000304B1B78002B1AD0FB7F002B01D12E4A7D
:1021500000E02E4A07F108032D49184606F068FAF8
:10216000FB7F002B0CBF01230023DBB2FB77294B45
:10217000186807F1080100230A2203F01FFF264B0D
:102180001B78002B22D0254B1B78013BDAB2234B66
:102190001A70224B1B78002B02D1204B04221A709C
:1021A0001E4B1B785A1E1346DB0013441C4A1A446C
:1021B00007F108031649184606F03AFA154B186855
:1021C00007F1080100230A2203F0F8FE154B1B78E3
:1021D000002B42D0144B1B78013BDAB2124B1A7021
:1021E000114B1B78002B03D1104B1A780E4B1A7031
:1021F000FB7F002B26D10E4B1B6825E000004842D8
:10220000E0060020D80600202CAC000838AC0008FE
:1022100044AC0008E4060020D90600200C01002090
:1022200010010020DA060020010100200201002038
:102230000801002004010020E8060020DB06002041
:10224000EC060020864B1B68BB61864B186807F1C3
:1022500018010023322203F0B1FE834B1B78002BC0
:1022600000F08D84814B1B78013BDAB27F4B1A70F2
:102270007E4B1B78002B03D17D4B1A787B4B1A7059
:102280007C4B186807F114010023322203F096FEFC
:1022900000F075BC784B1B78002B00F04F81FB7F62
:1022A000002B40F09280754B1B681846FEF754F9DE
:1022B00002460B466D490978012903D160A1D1E995
:1022C000000103E04FF000004FF00001FDF7E6FFD2
:1022D00002460B4610461946FEF78EFC0346674A37
:1022E0001360624B1B78022B02D1B7EE007A01E03B
:1022F0009FED657A614BD3ED007A77EE277A5F4BDD
:10230000C3ED007A594B1B78032B02D1B2EE047A4D
:1023100001E09FED5D7A594BD3ED007A77EE277A95
:10232000564BC3ED007A514B1B78042B02D19FED25
:10233000547A01E09FED547A504BD3ED007A77EE5A
:10234000277A4E4BC3ED007A4C4B1B681846FEF7BC
:1023500003F93DA3D3E90023FEF7E6FB0346002B78
:102360000CD0464BD3ED007A9FED457AF4EEC77A58
:10237000F1EE10FA02D53E4B03221A703F4B1B6858
:102380001846FEF7E9F832A3D3E90023FEF7CCFBA9
:102390000346002B02D0364B04221A70374B1B68C1
:1023A0001846FEF7D9F82CA3D3E90023FEF7BCFBAF
:1023B0000346002B02D0314B324A1A60294B186871
:1023C00000230A222D4903F0F9FDFB7F012B40F089
:1023D000B580234B1B681846FEF7BEF802460B4635
:1023E00022490978012903D115A1D1E9000103E0AF
:1023F0004FF000004FF00001FDF750FF02460B4682
:1024000010461946FEF7F8FB0346154A1360174BB2
:102410001B78022B02D1B7EE007A01E09FED1A7A09
:102420000F4BD3ED007A77EE277A0D4BC3ED007A90
:102430000E4B1B78032B29D1B2EE047A28E000BFA3
:102440009A9999999999B93FCDCCCCCCCCCC2340D1
:102450009A99999999F9584033333333333F8F40E0
:1024600004010020E8060020DB0600200101002016
:1024700002010020EC060020DA06002008010020FE
:102480000000C8429AF97944000000001FED027A6A
:10249000AB4BD3ED007A77EE277AA94BC3ED007AE8
:1024A000A74B1B681846FEF757F89DA3D3E90023F6
:1024B000FEF73AFB0346002B02D0A24B03221A7010
:1024C0009F4BD3ED007AB1EE047AF4EEC77AF1EEC9
:1024D00010FA06DD9C4B1B78022B02D1984B9B4ACD
:1024E0001A60974BD3ED007AB3EE0E7AF4EEC77A0A
:1024F000F1EE10FA0ADD944B1B78032B03D0924BBC
:102500001B78042B02D18E4B914A1A608C4BD3ED71
:10251000007AB2EE0E7AF4EEC77AF1EE10FA06DD2A
:10252000894B1B78012B02D1854B8A4A1A608A4B52
:10253000186800230A22824903F040FD874B1B786C
:10254000002B00F01E837B691846FEF705F8024653
:102550000B4683490978012903D173A1D1E9000110
:1025600003E04FF000004FF00001FDF797FE024638
:102570000B4610461946FEF73FFB03467B61784B3E
:102580001B78022B02D1B7EE007A01E09FED757A3D
:10259000D7ED057A77EE277AC7ED057A704B1B7871
:1025A000032B02D1B2EE047A01E09FED6E7AD7EDF3
:1025B000057A77EE277AC7ED057A7B691846FDF72D
:1025C000CBFF57A3D3E90023FEF7AEFA0346002B57
:1025D00002D05C4B03221A707B691846FDF7BCFFE2
:1025E00053A3D3E90023FEF79FFA0346002B01D043
:1025F0005D4B7B615D4B186807F1140100230A22D3
:1026000003F0DCFCBDE25A4B1B78002B00F00D817F
:10261000FB7F002B72D1574B1B681846FDF79CFFC0
:102620004F4B1B78012B03D13FA3D3E9002303E0D9
:102630004FF000024FF00003FDF72EFE02460B465E
:1026400010461946FEF7D8FA03464A4A1360494B2A
:1026500093ED007A424B1B78022B02D1F7EE007A01
:1026600001E0DFED407A77EE677A424BC3ED007A06
:10267000404B93ED007A3A4B1B78032B02D1F2EEDC
:10268000047A01E0DFED377A77EE677A394BC3EDF4
:10269000007A384B93ED007A314B1B78042B02D132
:1026A000DFED357A01E0DFED2F7A77EE677A314B97
:1026B000C3ED007A2F4BD3ED007AB2EE047AF4EE3C
:1026C000C77AF1EE10FA02D51E4B02221A70294B7E
:1026D0001B681846FDF740FF17A3D3E90023FEF758
:1026E0000FFA0346002B02D0224B244A1A601A4BE1
:1026F000186800230A221F4903F060FCFB7F012BAE
:1027000040F093800E4B1B681846FDF725FF144BD5
:102710001B78012B34D104A3D3E9002334E000BF9C
:10272000CDCCCCCCCCCC23409A9999999999B93FEE
:102730009A99999999F958407B14AE47E17A843F68
:1027400004010020020100200C0100200000A04034
:102750000000F04100007041E8060020DB06002088
:102760000101002000000000CDCCC742EC06002093
:10277000DA060020080100200000C842CDCCCC3D84
:102780004FF000024FF00003FDF786FD02460B46B6
:1027900010461946FEF730FA0346A54A1360A44BCB
:1027A00093ED007AA34B1B78022B02D1F7EE007A4F
:1027B00001E0DFEDA17A77EE677A9D4BC3ED007AF9
:1027C0009B4B93ED007A9B4B1B78032B02D1F2EECF
:1027D000047A01E0DFED987A77EE677A944BC3EDE7
:1027E000007A934BD3ED007AB2EE047AF4EEC77A16
:1027F000F1EE10FA02D5914B02221A708C4B1B6835
:102800001846FDF7A9FE86A3D3E90023FEF778F961
:102810000346002B02D0864B894A1A60894B186800
:1028200000230A22824903F0C9FB874B1B78002B47
:1028300000F0A9817B691846FDF78EFE7D4B1B7861
:10284000012B03D178A3D3E9002303E04FF000026A
:102850004FF00003FDF720FD02460B4610461946D7
:10286000FEF7CAF903467B6197ED057A714B1B7839
:10287000022B02D1F7EE007A01E0DFED6F7A77EEFE
:10288000677AC7ED057A97ED057A6A4B1B78032BBB
:1028900002D1F2EE047A01E0DFED677A77EE677A33
:1028A000C7ED057AD7ED057AB2EE047AF4EEC77A71
:1028B000F1EE10FA02D5614B02221A707B691846BC
:1028C000FDF74AFE56A3D3E90023FEF719F90346A4
:1028D000002B01D05A4B7B615C4B186807F1140147
:1028E00000230A2203F06AFB4DE1594B1B78002BB1
:1028F00014D0574B00221A70564B01221A7007F160
:1029000008035549184605F093FE544B186807F123
:10291000080100230A2203F051FB3CE14D4B1B78D8
:10292000002B57D04B4B00221A70FB7F002B22D17B
:102930004B4B00221A70414B02221A70494B012264
:102940001A7007F108034849184605F071FE434B19
:10295000186807F1080100230A2203F02FFB4FF447
:10296000FA6004F049F8374B186800230A223F49FF
:1029700003F024FB0FE1FB7F012B2BD1384B01220D
:102980001A7007F108033A49184605F051FE334B17
:10299000186807F1080100230A2203F00FFB4FF427
:1029A000FA6004F029F8334B1B785A1E1346DB00FB
:1029B0001344314A1A4407F108031146184605F03A
:1029C00037FE264B186807F1080100230A2203F09E
:1029D000F5FAE0E0224B1B78002B4FD0204B002271
:1029E0001A70204B01221A7007F108031E4918467D
:1029F00005F01EFE194B186807F1080100230A2292
:102A000003F0DCFA4FF4FA6003F0F6FF0D4B1868A0
:102A100000230A22064903F0D1FABCE0AFF300809C
:102A20007B14AE47E17A843F9A9999999999B93F75
:102A3000040100200101002000000000020100202C
:102A4000CDCCCC3DE8060020DB060020EC060020C3
:102A500000010020D806002038AC0008E406002061
:102A6000D9060020DA06002048AC00080801002042
:102A700054AC00080C01002010010020474B1B78CB
:102A8000002B3FD0FB7F002B24D1454B03221A7033
:102A900007F10803434A4449184605F0C9FD434B72
:102AA000186807F108010023232203F087FA4FF486
:102AB000FA6003F0A1FF3E4B186807F114010023F0
:102AC000232203F07BFA3B4B01221A70334B002286
:102AD0001A7060E0374B00221A7007F10803364A7B
:102AE0003149184605F0A4FD304B186807F108017C
:102AF00000230A2203F062FA304B01221A70274B9E
:102B000000221A702B4B1B78002B3ED0294B002241
:102B10001A7007F108032A4A2349184605F088FD70
:102B2000224B186807F1080100230A2203F046FA35
:102B3000244B01221A7028E0234B00221A70234BE9
:102B400000221A701B4B00221A70144B00221A70BC
:102B50001F4B01221A700023FB7707F108031D4A5F
:102B60001149184605F064FD104B186807F108017B
:102B700000230A2203F022FA08E000BF06E000BFAB
:102B800004E000BF02E000BF00E000BF4FF40051CE
:102B9000114800F0EEFFFFF707BA00BFDA06002089
:102BA0000201002060AC000844AC0008E4060020EC
:102BB000EC060020DB0600206CAC0008DC060020E0
:102BC00074AC0008DD060020D8060020D9060020DD
:102BD0000001002074AB00080008024080B588B0F6
:102BE00000AF786000237B6107F1180300221A60B0
:102BF0001A714FF000033B614FF00003FB603B4B49
:102C00001B6807F114010A22184603F071FB034602
:102C1000012B06D1FEF786FD07F114031846FEF7D7
:102C2000BFFC334B1B78002B2BD0324B1B6807F1BA
:102C30000C010A22184603F05BFB0346012B50D11E
:102C4000FEF770FDD7ED037AB0EE670AFEF732FDAE
:102C50000346FB77284B1B78FA7FD31ADBB2013B84
:102C6000DBB21846FEF74EFD4FF4967003F0C4FE3B
:102C7000FEF758FDD7ED037AB0EE670AFEF71AFDAE
:102C8000BDE71E4B1B78002BB9D01D4B1B6807F10D
:102C900010010A22184603F02BFB0346012B22D118
:102CA000FEF740FDD7ED047AB0EE670AFEF712FD9D
:102CB0000346FB77104B1B78FA7FD31ADBB2013B3C
:102CC000DBB21846FEF71EFD4FF4967003F094FE3B
:102CD000FEF728FDD7ED047AB0EE670AFEF7FAFC9E
:102CE0008DE700BF8BE700BF89E700BFE406002047
:102CF000DB060020EC06002001010020DA0600209F
:102D0000E806002080B582B000AF78601C4B1B78CD
:102D1000DBB2002B26D01B4B1B781B4AD2ED007A6E
:102D2000B0EE670A1846FEF74DF91BE0154B1B780D
:102D3000013B032B17D801A252F823F04D2D0008B8
:102D4000532D0008592D00085F2D0008FEF7E0F90B
:102D500009E0FEF7B1F906E0FEF716FA03E0FEF728
:102D600039FA00E000BF064B1B78DBB2002BDDD147
:102D7000FEF714F94FF4FA7003F03EFEC6E700BF09
:102D8000DC0600200C0100200401002080B582B088
:102D900000AF78600B4B1B78DBB2002B05D0F2EE56
:102DA000040A9FED090AFEF7FFFC00BF054B1B78E4
:102DB000DBB2002BFAD1FEF737FD642003F01CFED6
:102DC000E8E700BFDD0600200000C84280B584B0FF
:102DD00000AF78607B681B68B3F1804F1CD1012283
:102DE0004FF40061614800F0ABFE00BF00BF00BFC0
:102DF00000BF00BF00BF00BF00BF00BF00BF00BFDB
:102E000000BF00BF00BF00BF00224FF40061574861
:102E100000F096FE00F0C4FB7B681B68544A9342A6
:102E200040F09F80534801F08FFE0023FB60524B1F
:102E30001B889BB219464D4800F06AFE0346002BE2
:102E40005BD14D4B1B889BB27B814B4B1B889BB24C
:102E5000B3F5806F38D0B3F5806F45DC102B25DCDF
:102E6000022B41DB023B0E2B3ED801A252F823F08D
:102E7000B52E0008E92E0008BB2E0008E92E000838
:102E8000E92E0008E92E0008D12E0008E92E0008DE
:102E9000E92E0008E92E0008E92E0008E92E0008B6
:102EA000E92E0008E92E0008D72E0008B3F5007FB0
:102EB00006D019E002237B8116E004237B8113E016
:102EC0004FF400737B810FE04FF480637B810BE054
:102ED00008237B8108E010237B81284B00221A7095
:102EE000274B00221A7000BF264B186807F10C020E
:102EF00007F10A01002303F05FF9234B02225A6114
:102F0000214B04225A61204B08225A611E4B102289
:102F10005A611D4B4FF400725A611B4B4FF4004233
:102F20005A61282000F054FC172000F051FC0720C3
:102F300000F04EFC082000F04BFC0A2000F048FC9A
:102F4000092000F045FCFB68012B0AD1FB68002B2F
:102F500007D00E4B4FF080521A60BFF34F8FBFF374
:102F60006F8F00BF1037BD4680BD00BF000002401C
:102F70000040014078060020DE060020DC0600202C
:102F8000DD060020E0060020003C014004ED00E0EA
:102F900080B400AF72B600BFFEE7000080B582B01B
:102FA00000AF00237B60124B5B6C114A43F48043FB
:102FB00053640F4B5B6C03F480437B607B6800239E
:102FC0003B600B4B1B6C0A4A43F080531364084B65
:102FD0001B6C03F080533B603B6800220F216FF0B5
:102FE000010000F0D9FB00BF0837BD4680BD00BF1F
:102FF0000038024080B58AB000AF786007F1140352
:1030000000221A605A609A60DA601A617B681B6855
:10301000194A93422BD100233B61184B5B6C174A32
:1030200043F480535364154B5B6C03F480533B6152
:103030003B690023FB60114B1B6B104A43F00103FB
:1030400013630E4B1B6B03F00103FB60FB68E02373
:103050007B610223BB610023FB6103233B620523E9
:103060007B6207F114031946054800F0CDFB00BF51
:103070002837BD4680BD00BF003001400038024007
:103080000000024080B586B000AF78607B681B68A6
:10309000224A93420ED100237B61214B1B6C204AB4
:1030A00043F0020313641E4B1B6C03F002037B61AD
:1030B0007B692EE07B681B681A4A93420ED100237D
:1030C0003B61174B1B6C164A43F008031364144B07
:1030D0001B6C03F008033B613B691AE07B681B68CB
:1030E000114A934215D10023FB600D4B5B6C0C4AD7
:1030F00043F4803353640A4B5B6C03F48033FB600E
:10310000FB6800220521182000F046FB182000F083
:103110005FFB00BF1837BD4680BD00BF0004004004
:1031200000380240000C00400040014080B588B0EB
:1031300000AF786007F10C0300221A605A609A60B1
:10314000DA601A617B681B68124A93421DD1002322
:10315000BB60114B1B6B104A43F0010313630E4B12
:103160001B6B03F00103BB60BB680123FB60022300
:103170003B6100237B610023BB610223FB6107F1FC
:103180000C031946054800F03FFB00BF2037BD4641
:1031900080BD00BF000C004000380240000002402B
:1031A00080B58EB000AF78600023FB620023BB6265
:1031B0000023FB60344B1B6C334A43F00103136460
:1031C000314B1B6C03F00103FB60FB6807F110023D
:1031D00007F114031146184601F042F93B6AFB62FD
:1031E000FB6A002B03D101F027F9786304E001F0BA
:1031F00023F903465B007B637B6B244AA2FB03231A
:103200009B0C013BBB62224B4FF080421A60204B6B
:1032100040F2E732DA601E4ABB6A53601C4B002260
:103220001A611B4B00229A60194B00229A611848C0
:1032300001F0D8FB034687F8333097F83330002B82
:103240001BD1134801F01EFC034687F8333097F872
:103250003330002B11D11C2000F0BAFA7B680F2B01
:1032600008D8002279681C2000F096FA094A7B6889
:10327000136002E0012387F8333097F833301846A3
:103280003837BD4680BD00BF0038024083DE1B4397
:10329000F00600203801002080B400AFFEE780B4C3
:1032A00083B000AF1EF0040F0CBFEFF30883EFF301
:1032B00009837B60FEE780B400AFFEE780B400AF17
:1032C000FEE780B400AFFEE780B400AF00BFBD46AC
:1032D0005DF8047B704780B500AF022000F064FC0D
:1032E00000BF80BD80B500AF042000F05DFC00BFD2
:1032F00080BD80B500AF082000F056FC00BF80BD47
:1033000080B500AF102000F04FFC00BF80BD80B53D
:1033100000AF4FF4007000F047FC00BF80BD00001C
:1033200080B500AF024801F0ABFD00BF80BD00BF1B
:103330007806002080B500AF024801F0A1FD00BF73
:1033400080BD00BFF006002080B500AF4FF4806064
:1033500000F02AFC00BF80BD80B400AF01231846F6
:10336000BD465DF8047B704780B582B000AF7860E1
:10337000396004F0B3FC034616221A604FF0FF33A5
:1033800018460837BD4680BD80B582B000AF786072
:103390004FF0FF317868FFF7E7FFFEE780B586B0B2
:1033A00000AFF860B9607A6000237B610AE0AFF398
:1033B00000800146BB685A1CBA60CAB21A707B69A9
:1033C00001337B617A697B689A42F0DB7B6818463F
:1033D0001837BD4680BD80B586B000AFF860B960D3
:1033E0007A6000237B6109E0BB685A1CBA601B78D5
:1033F0001846AFF300807B6901337B617A697B6893
:103400009A42F1DB7B6818461837BD4680BD80B410
:1034100083B000AF78604FF0FF3318460C37BD46DD
:103420005DF8047B704780B483B000AF786039608A
:103430003B684FF400525A60002318460C37BD46D3
:103440005DF8047B704780B483B000AF78600123DF
:1034500018460C37BD465DF8047B704780B485B0D4
:1034600000AFF860B9607A60002318461437BD4693
:103470005DF8047B7047000080B586B000AF7860CF
:10348000144A154BD31A7B617B693B61134B1B6854
:10349000002B02D1114B124A1A60104B1A687B683C
:1034A00013443A699A4207D204F018FC03460C22EE
:1034B0001A604FF0FF3309E0084B1B68FB60074BB5
:1034C0001A687B681344054A1360FB68184618376E
:1034D000BD4680BD00000120000400003807002028
:1034E000D87D002080B400AF064BD3F88830054A61
:1034F00043F47003C2F8883000BFBD465DF8047B1A
:10350000704700BF00ED00E0DFF834D00D480E49F1
:103510000E4A002302E0D458C4500433C4188C422D
:10352000F9D30B4A0B4C002301E013600432A24292
:10353000FBD3FFF7D7FF04F0D7FBFEF7C5F97047C1
:1035400000000120000000201403002084B00008C7
:1035500014030020D47D0020FEE7000080B500AFFA
:103560000E4B1B680D4A43F4007313600B4B1B6832
:103570000A4A43F480631360084B1B68074A43F40C
:1035800080731360032000F0FCF80F20FFF708FEA3
:10359000FFF704FD0023184680BD00BF003C024039
:1035A00080B400AF064B1B781A46064B1B681344C9
:1035B000044A136000BFBD465DF8047B704700BF3E
:1035C0003C0100203C07002080B400AF034B1B6887
:1035D0001846BD465DF8047B704700BF3C070020DD
:1035E00080B485B000AF78607B6803F00703FB60B0
:1035F0000C4BDB68BB60BA684FF6FF031340BB603F
:10360000FB681A02BB68134343F0BF6343F4003303
:10361000BB60044ABB68D36000BF1437BD465DF889
:10362000047B704700ED00E080B400AF044BDB6822
:103630001B0A03F007031846BD465DF8047B70477C
:1036400000ED00E080B483B000AF0346FB7197F952
:103650000730002B0BDBFB7903F01F02074997F9BA
:1036600007305B09012000FA02F241F8232000BF75
:103670000C37BD465DF8047B704700BF00E100E0F9
:1036800080B483B000AF0346FB7197F90730002B7D
:1036900012DBFB7903F01F020A4997F907305B0937
:1036A000012000FA02F2203341F82320BFF34F8FAC
:1036B00000BFBFF36F8F00BF00BF0C37BD465DF882
:1036C000047B704700E100E080B483B000AF0346A4
:1036D0003960FB7197F90730002B0ADB3B68DAB2DF
:1036E0000C4997F907301201D2B20B4483F800233A
:1036F0000AE03B68DAB20849FB7903F00F03043BA8
:103700001201D2B20B441A7600BF0C37BD465DF8E9
:10371000047B704700E100E000ED00E080B489B078
:1037200000AFF860B9607A60FB6803F00703FB61E3
:10373000FB69C3F10703042B28BF0423BB61FB69AA
:103740000433062B02D9FB69033B00E000237B61B5
:103750004FF0FF32BB6902FA03F3DA43BB681A4049
:103760007B699A404FF0FF317B6901FA03F3D9433B
:103770007B680B40134318462437BD465DF8047B35
:10378000704780B582B000AF78607868FFF728FF97
:1037900000BF0837BD4680BD80B586B000AF034688
:1037A000B9607A60FB7300237B61FFF73DFF7861AE
:1037B0007A68B9687869FFF7B1FF024697F90F3068
:1037C00011461846FFF780FF00BF1837BD4680BD81
:1037D00080B582B000AF0346FB7197F907301846F9
:1037E000FFF730FF00BF0837BD4680BD80B582B00F
:1037F00000AF0346FB7197F907301846FFF740FF0B
:1038000000BF0837BD4680BD80B489B000AF786086
:10381000396000237B6100233B610023BB610023EF
:10382000FB6159E10122FB6902FA03F37B613B680A
:103830001B687A6913403B613A697B699A4240F0A0
:1038400048813B685B6803F00303012B05D03B68AC
:103850005B6803F00303022B30D17B689B68BB617C
:10386000FB695B00032202FA03F3DB43BA691340EE
:10387000BB613B68DA68FB695B0002FA03F3BA6973
:103880001343BB617B68BA699A607B685B68BB6104
:103890000122FB6902FA03F3DB43BA691340BB61FF
:1038A0003B685B681B0903F00102FB6902FA03F342
:1038B000BA691343BB617B68BA695A603B685B684D
:1038C00003F00303032B17D07B68DB68BB61FB6944
:1038D0005B00032202FA03F3DB43BA691340BB61C6
:1038E0003B689A68FB695B0002FA03F3BA69134309
:1038F000BB617B68BA69DA603B685B6803F003030D
:10390000022B23D1FB69DA087B68083253F8223096
:10391000BB61FB6903F007039B000F2202FA03F36C
:10392000DB43BA691340BB613B681A69FB6903F06A
:1039300007039B0002FA03F3BA691343BB61FB69F7
:10394000DA087B680832B96943F822107B681B6883
:10395000BB61FB695B00032202FA03F3DB43BA6934
:103960001340BB613B685B6803F00302FB695B00CB
:1039700002FA03F3BA691343BB617B68BA691A6040
:103980003B685B6803F44033002B00F0A280002307
:10399000FB60574B5B6C564A43F480435364544B73
:1039A0005B6C03F48043FB60FB68524AFB699B0835
:1039B000023352F82330BB61FB6903F003039B0021
:1039C0000F2202FA03F3DB43BA691340BB617B6841
:1039D000494A934219D07B68484A934213D07B6886
:1039E000474A93420DD07B68464A934207D07B6892
:1039F000454A934201D1042308E0072306E003234C
:103A000004E0022302E0012300E00023FA6902F04F
:103A1000030292009340BA691343BB613549FB69C5
:103A20009B080233BA6941F82320384B9B68BB617D
:103A30003B69DB43BA691340BB613B685B6803F4D5
:103A40008013002B03D0BA693B691343BB612F4A33
:103A5000BB6993602D4BDB68BB613B69DB43BA6993
:103A60001340BB613B685B6803F40013002B03D079
:103A7000BA693B691343BB61244ABB69D360234BDA
:103A80005B68BB613B69DB43BA691340BB613B6860
:103A90005B6803F40033002B03D0BA693B6913431E
:103AA000BB611A4ABB695360184B1B68BB613B6919
:103AB000DB43BA691340BB613B685B6803F4803346
:103AC000002B03D0BA693B691343BB610F4ABB6942
:103AD0001360FB690133FB61FB690F2B7FF6A2AE1C
:103AE00000BF00BF2437BD465DF8047B704700BFB0
:103AF000003802400038014000000240000402404B
:103B000000080240000C024000100240003C01404E
:103B100080B485B000AF78600B467B807B681A6903
:103B20007B881340002B02D00123FB7301E00023AC
:103B3000FB73FB7B18461437BD465DF8047B70476A
:103B400080B483B000AF78600B467B8013467B70F7
:103B50007B78002B03D07A887B689A6103E07B88AE
:103B60001A047B689A6100BF0C37BD465DF8047B80
:103B7000704780B485B000AF78600B467B807B686F
:103B80005B69FB607A88FB6813401A04FB68D943C1
:103B90007B880B401A437B689A6100BF1437BD468F
:103BA0005DF8047B7047000080B582B000AF03462B
:103BB000FB80084B5A69FB881340002B06D0054A4E
:103BC000FB885361FB881846FDF758FE00BF083795
:103BD000BD4680BD003C014080B586B000AF786036
:103BE0007B68002B01D1012367E27B681B6803F02F
:103BF0000103002B75D0884B9B6803F00C03042B4A
:103C00000CD0854B9B6803F00C03082B12D1824B20
:103C10005B6803F48003B3F5800F0BD17E4B1B6808
:103C200003F40033002B5BD07B685B68002B57D11B
:103C3000012342E27B685B68B3F5803F06D1764B97
:103C40001B68754A43F4803313601DE07B685B6832
:103C5000B3F5A02F0CD1704B1B686F4A43F480233F
:103C600013606D4B1B686C4A43F4803313600BE0A8
:103C7000694B1B68684A23F480331360664B1B68EA
:103C8000654A23F4802313607B685B68002B13D0A4
:103C9000FFF79AFC386108E0FFF796FC02463B69A3
:103CA000D31A642B01D9032307E25B4B1B6803F48F
:103CB0000033002BF0D014E0FFF786FC386108E0F9
:103CC000FFF782FC02463B69D31A642B01D9032318
:103CD000F3E1514B1B6803F40033002BF0D100E0FB
:103CE00000BF7B681B6803F00203002B63D04A4BC4
:103CF0009B6803F00C03002B0BD0474B9B6803F031
:103D00000C03082B1CD1444B5B6803F48003002B8D
:103D100016D1414B1B6803F00203002B05D07B68D2
:103D2000DB68012B01D00123C7E13B4B1B6823F06B
:103D3000F8027B681B69DB00374913430B603AE0EC
:103D40007B68DB68002B20D0344B01221A60FFF720
:103D50003BFC386108E0FFF737FC02463B69D31AA9
:103D6000022B01D90323A8E12B4B1B6803F00203AC
:103D7000002BF0D0284B1B6823F0F8027B681B69EE
:103D8000DB00254913430B6015E0244B00221A6029
:103D9000FFF71AFC386108E0FFF716FC02463B69A2
:103DA000D31A022B01D9032387E11B4B1B6803F0B5
:103DB0000203002BF0D17B681B6803F00803002B83
:103DC00036D07B685B69002B16D0154B01221A6038
:103DD000FFF7FAFB386108E0FFF7F6FB02463B69A4
:103DE000D31A022B01D9032367E10B4B5B6F03F05E
:103DF0000203002BF0D01BE0094B00221A60FFF7F2
:103E0000E3FB38610EE0FFF7DFFB02463B69D31AA4
:103E1000022B07D9032350E100380240000047423B
:103E2000800E4742884B5B6F03F00203002BEAD100
:103E30007B681B6803F00403002B00F097800023CD
:103E4000FB75814B1B6C03F08053002B0FD10023BB
:103E5000BB607D4B1B6C7C4A43F0805313647A4BF0
:103E60001B6C03F08053BB60BB680123FB75774B71
:103E70001B6803F48073002B18D1744B1B68734AC2
:103E800043F480731360FFF79FFB386108E0FFF78E
:103E90009BFB02463B69D31A022B01D903230CE199
:103EA0006A4B1B6803F48073002BF0D07B689B681F
:103EB000012B06D1644B1B6F634A43F00103136768
:103EC0001CE07B689B68052B0CD15F4B1B6F5E4A27
:103ED00043F0040313675C4B1B6F5B4A43F0010321
:103EE00013670BE0584B1B6F574A23F0010313670E
:103EF000554B1B6F544A23F0040313677B689B6880
:103F0000002B15D0FFF760FB38610AE0FFF75CFB80
:103F100002463B69D31A41F28832934201D9032306
:103F2000CBE0494B1B6F03F00203002BEED014E0F3
:103F3000FFF74AFB38610AE0FFF746FB02463B69A0
:103F4000D31A41F28832934201D90323B5E03E4BA4
:103F50001B6F03F00203002BEED1FB7D012B05D17B
:103F6000394B1B6C384A23F0805313647B689B6980
:103F7000002B00F0A180344B9B6803F00C03082B4E
:103F80005CD07B689B69022B41D1314B00221A60C7
:103F9000FFF71AFB386108E0FFF716FB02463B69A2
:103FA000D31A022B01D9032387E0274B1B6803F0A8
:103FB0000073002BF0D17B68DA697B681B6A1A43B7
:103FC0007B685B6A9B011A437B689B6A5B08013BC9
:103FD0001B041A437B68DB6A1B061B4913434B60B7
:103FE0001B4B01221A60FFF7EFFA386108E0FFF778
:103FF000EBFA02463B69D31A022B01D903235CE09A
:10400000114B1B6803F00073002BF0D054E0104BF1
:1040100000221A60FFF7D8FA386108E0FFF7D4FAF7
:1040200002463B69D31A022B01D9032345E0064B14
:104030001B6803F00073002BF0D13DE07B689B69A7
:10404000012B07D1012338E0003802400070004006
:10405000600047421B4B5B68FB607B689B69012BE0
:1040600028D0FB6803F480027B68DB699A4221D187
:10407000FB6803F03F027B681B6A9A421AD1FA6818
:1040800047F6C07313407A68526A9201934211D185
:10409000FB6803F440327B689B6A5B08013B1B04AE
:1040A0009A4207D1FB6803F070627B68DB6A1B06EB
:1040B0009A4201D0012300E0002318461837BD467C
:1040C00080BD00BF0038024080B584B000AF78608A
:1040D00039607B68002B01D10123CCE0684B1B6861
:1040E00003F007033A689A420CD9654B3A68D2B29A
:1040F0001A70634B1B6803F007033A689A4201D0B9
:104100000123B8E07B681B6803F00203002B20D07A
:104110007B681B6803F00403002B05D0594B9B6898
:10412000584A43F4E05393607B681B6803F008032C
:10413000002B05D0534B9B68524A43F46043936075
:10414000504B9B6823F0F0027B689B684D491343FA
:104150008B607B681B6803F00103002B44D07B68F5
:104160005B68012B07D1474B1B6803F40033002B1E
:1041700019D101237FE07B685B68022B03D07B6849
:104180005B68032B07D13F4B1B6803F00073002BC8
:1041900009D101236FE03B4B1B6803F00203002BA6
:1041A00001D1012367E0374B9B6823F003027B6852
:1041B0005B68344913438B60FFF706FAF8600AE046
:1041C000FFF702FA0246FB68D31A41F288329342A3
:1041D00001D903234FE02B4B9B6803F00C027B6853
:1041E0005B689B009A42EBD1254B1B6803F00703E9
:1041F0003A689A420CD2224B3A68D2B21A70204BDB
:104200001B6803F007033A689A4201D0012332E0A9
:104210007B681B6803F00403002B08D0194B9B68D4
:1042200023F4E0527B68DB68164913438B607B689C
:104230001B6803F00803002B09D0124B9B6823F482
:1042400060427B681B69DB000E4913438B6000F002
:1042500021F802460B4B9B681B0903F00F030A4928
:10426000CB5C22FA03F3094A1360094B1B6818461A
:10427000FEF796FF002318461037BD4680BD00BFED
:10428000003C02400038024084AC000834010020A9
:10429000380100202DE9B04F90B000AF00237B63C0
:1042A0000023FB6300233B630023BB63594B9B68E4
:1042B00003F00C03082B0DD0082B00F2A180002B7B
:1042C00002D0042B03D09BE0534BBB639BE0534BCA
:1042D000BB6398E04F4B5B6803F03F037B634D4B40
:1042E0005B6803F48003002B28D04A4B5B689B0972
:1042F00000223B627A623B6AC3F308000021474B0D
:1043000003FB01F2002300FB03F31344434AA0FB29
:104310000212FA620A46BA62FA6A1344FB627B6BC3
:104320000022BB61FA61D7E90623D7E90A01FCF74D
:10433000B3FC02460B461346FB6353E0354B5B6808
:104340009B0900223B617A613B69C3F3080A4FF085
:10435000000B52465B464FF000004FF00001590140
:1043600041EAD261500102460B46B2EB0A0863EB08
:104370000B094FF000024FF000034FEA891343EAA4
:1043800098634FEA8812B2EB080463EB09054FF01B
:1043900000024FF00003EB0043EA5473E2001446BE
:1043A0001D4614EB0A033B6045EB0B037B604FF0AB
:1043B00000024FF00003D7E9004529468B02214651
:1043C00043EA915321468A02104619467B6B00222C
:1043D000BB60FA60D7E90223FCF75EFC02460B469D
:1043E0001346FB630B4B5B681B0C03F003030133A9
:1043F0005B003B63FA6B3B6BB2FBF3F3BB6302E026
:10440000054BBB6300BFBB6B18464037BD46BDE8DC
:10441000B08F00BF003802400024F40040787D01D6
:1044200080B400AF034B1B681846BD465DF8047BA3
:10443000704700BF3401002080B500AFFFF7F0FFE8
:104440000246054B9B689B0A03F007030349CB5CBC
:1044500022FA03F3184680BD0038024094AC0008ED
:1044600080B483B000AF786039607B680F221A6037
:10447000124B9B6803F003027B685A600F4B9B68EA
:1044800003F0F0027B689A600C4B9B6803F4E052E7
:104490007B68DA60094B9B68DB0803F4E0527B68B9
:1044A0001A61074B1B6803F007023B681A6000BFE4
:1044B0000C37BD465DF8047B704700BF00380240F2
:1044C000003C024080B582B000AF78607B68002B72
:1044D00001D101237BE07B685B6A002B08D17B68FC
:1044E0005B68B3F5827F09D07B680022DA6105E062
:1044F0007B6800221A617B6800225A617B68002277
:104500009A627B6893F85130DBB2002B06D17B684E
:10451000002283F850207868FEF76CFD7B68022249
:1045200083F851207B681B681A687B681B6822F03F
:1045300040021A607B685B6803F482727B689B6848
:1045400003F404431A437B68DB6803F400631A43F3
:104550007B681B6903F002031A437B685B6903F005
:1045600001031A437B689B6903F400731A437B6859
:10457000DB6903F038031A437B681B6A03F080038E
:1045800042EA03017B689B6A03F400527B681B6864
:104590000A431A607B689B691B0C03F004017B686B
:1045A0005B6A03F010027B681B680A435A607B68F1
:1045B0001B68DA697B681B6822F40062DA617B6839
:1045C00000225A657B68012283F851200023184697
:1045D0000837BD4680BD80B588B000AFF860B960CF
:1045E0003B601346FB800023FB77FB6893F8503059
:1045F000012B01D1022326E1FB68012283F8502020
:10460000FEF7E2FFB861FB88FB82FB6893F851304C
:10461000DBB2012B02D00223FB770BE1BB68002B3E
:1046200002D0FB88002B02D10123FB7702E1FB685B
:10463000032283F85120FB6800225A65FB68BA68A0
:104640001A63FB68FA889A86FB68FA88DA86FB6840
:1046500000229A63FB6800229A87FB680022DA87AF
:10466000FB6800225A64FB6800221A64FB689B689E
:10467000B3F5004F0FD1FB681B681A68FB681B6815
:1046800022F040021A60FB681B681A68FB681B680E
:1046900042F480421A60FB681B681B6803F0400309
:1046A000402B07D0FB681B681A68FB681B6842F048
:1046B00040021A60FB68DB68B3F5006F4BD1FB6802
:1046C0005B68002B02D0FB8A012B3ED1FB681B6B81
:1046D0001A88FB681B68DA60FB681B6B9A1CFB6816
:1046E0001A63FB68DB8E9BB2013B9AB2FB68DA86E9
:1046F0002BE0FB681B689B6803F00203022B12D1BE
:10470000FB681B6B1A88FB681B68DA60FB681B6B15
:104710009A1CFB681A63FB68DB8E9BB2013B9AB262
:10472000FB68DA8611E0FEF74FFF0246BB69D31A39
:104730003A689A4203D83B68B3F1FF3F02D13B6825
:10474000002B02D10323FB7774E0FB68DB8E9BB266
:10475000002BCED14CE0FB685B68002B02D0FB8ABB
:10476000012B40D1FB681A6BFB681B680C33127875
:104770001A70FB681B6B5A1CFB681A63FB68DB8EA4
:104780009BB2013B9AB2FB68DA862CE0FB681B689F
:104790009B6803F00203022B13D1FB681A6BFB68C2
:1047A0001B680C3312781A70FB681B6B5A1CFB6871
:1047B0001A63FB68DB8E9BB2013B9AB2FB68DA8618
:1047C00011E0FEF701FF0246BB69D31A3A689A422C
:1047D00003D83B68B3F1FF3F02D13B68002B02D105
:1047E0000323FB7726E0FB68DB8E9BB2002BCDD149
:1047F000BA693968F86800F0B3F80346002B02D0B4
:10480000FB6820225A65FB689B68002B0AD10023B5
:104810003B61FB681B68DB683B61FB681B689B684E
:104820003B613B69FB685B6D002B02D00123FB778A
:1048300000E000BFFB68012283F85120FB680022E2
:1048400083F85020FB7F18462037BD4680BD00000E
:1048500080B588B000AFF860B9603B601346FB716B
:10486000FEF7B2FE0246BB6A9B1A3A681344FB612C
:10487000FEF7AAFEB861394B1B685B011B0DFA6994
:1048800002FB03F37B6154E03B68B3F1FF3F50D080
:10489000FEF79AFE0246BB69D31AFA699A4202D918
:1048A000FB69002B3DD1FB681B685A68FB681B68DD
:1048B00022F0E0025A60FB685B68B3F5827F11D199
:1048C000FB689B68B3F5004F04D0FB689B68B3F5A9
:1048D000806F07D1FB681B681A68FB681B6822F0B1
:1048E00040021A60FB689B6AB3F5005F0FD1FB685A
:1048F0001B681A68FB681B6822F400521A60FB6888
:104900001B681A68FB681B6842F400521A60FB6857
:10491000012283F85120FB68002283F850200323F2
:1049200017E07B69002B01D10023FB617B69013B10
:104930007B61FB681B689A68BB681340BA689A423F
:104940000CBF01230023DBB21A46FB799A429BD1AC
:10495000002318462037BD4680BD00BF340100202B
:1049600080B588B002AFF860B9607A601B4B1B68F5
:104970001B4AA2FB03235B0D4FF47A7202FB03F385
:104980007B61FB685B68B3F5827F12D17B68009323
:10499000BB6800228021F868FFF75AFF0346002B0E
:1049A00016D0FB685B6D43F02002FB685A65032359
:1049B0000FE07B69002B0AD07B69013B7B61FB68C0
:1049C0001B689B6803F08003802BF2D000E000BFDF
:1049D000002318461837BD4680BD00BF34010020B3
:1049E000819F5E1680B582B000AF78607B68002B37
:1049F00001D1012341E07B6893F83D30DBB2002B0D
:104A000006D17B68002283F83C207868FEF73AFBE9
:104A10007B68022283F83D207B681A687B68043338
:104A20001946104600F0E6FC7B68012283F8462018
:104A30007B68012283F83E207B68012283F83F20B7
:104A40007B68012283F840207B68012283F84120A3
:104A50007B68012283F842207B68012283F843208F
:104A60007B68012283F844207B68012283F845207B
:104A70007B68012283F83D20002318460837BD4695
:104A800080BD000080B485B000AF78607B6893F88B
:104A90003D30DBB2012B01D0012344E07B680222D0
:104AA00083F83D207B681B68DA687B681B6842F0EE
:104AB0000102DA607B681B681E4A934218D07B684B
:104AC0001B68B3F1804F13D07B681B681A4A93426E
:104AD0000ED07B681B68194A934209D07B681B681B
:104AE000174A934204D07B681B68164A934211D13F
:104AF0007B681B689B6803F00703FB60FB68062B61
:104B000010D07B681B681A687B681B6842F0010242
:104B10001A6007E07B681B681A687B681B6842F0B4
:104B200001021A60002318461437BD465DF8047B65
:104B3000704700BF00000140000400400008004032
:104B4000000C00400040014080B483B000AF7860AA
:104B50007B681B68DA687B681B6822F00102DA60F8
:104B60007B681B681A6A41F211131340002B0FD1A6
:104B70007B681B681A6A40F244431340002B07D13C
:104B80007B681B681A687B681B6822F001021A6048
:104B90007B68012283F83D20002318460C37BD4670
:104BA0005DF8047B704780B582B000AF78607B68A9
:104BB000002B01D1012341E07B6893F83D30DBB24B
:104BC000002B06D17B68002283F83C20786800F037
:104BD00039F87B68022283F83D207B681A687B687D
:104BE00004331946104600F005FC7B68012283F867
:104BF00046207B68012283F83E207B68012283F8EF
:104C00003F207B68012283F840207B68012283F8E3
:104C100041207B68012283F842207B68012283F8CF
:104C200043207B68012283F844207B68012283F8BB
:104C300045207B68012283F83D2000231846083771
:104C4000BD4680BD80B483B000AF786000BF0C3734
:104C5000BD465DF8047B704780B584B000AF7860D6
:104C600039603B68002B09D17B6893F83E30DBB29A
:104C7000012B14BF01230023DBB222E03B68042B8D
:104C800009D17B6893F83F30DBB2012B14BF0123BD
:104C90000023DBB215E03B68082B09D17B6893F851
:104CA0004030DBB2012B14BF01230023DBB208E04C
:104CB0007B6893F84130DBB2012B14BF0123002342
:104CC000DBB2002B01D0012368E03B68002B04D14C
:104CD0007B68022283F83E2013E03B68042B04D15A
:104CE0007B68022283F83F200BE03B68082B04D14D
:104CF0007B68022283F8402003E07B68022283F86D
:104D000041207B681B6801223968184600F018FEB4
:104D10007B681B68234A934207D17B681B685A6CE7
:104D20007B681B6842F400425A647B681B681D4A1A
:104D3000934218D07B681B68B3F1804F13D07B6817
:104D40001B68194A93420ED07B681B68174A93422E
:104D500009D07B681B68164A934204D07B681B68A5
:104D6000144A934211D17B681B689B6803F00703C8
:104D7000FB60FB68062B10D07B681B681A687B6899
:104D80001B6842F001021A6007E07B681B681A6822
:104D90007B681B6842F001021A6000231846103736
:104DA000BD4680BD000001400004004000080040F6
:104DB000000C00400040014080B582B000AF786038
:104DC00039607B681B6800223968184600F0B8FD1E
:104DD0007B681B68294A934217D17B681B681A6A53
:104DE00041F211131340002B0FD17B681B681A6A24
:104DF00040F244431340002B07D17B681B685A6C78
:104E00007B681B6822F400425A647B681B681A6A3C
:104E100041F211131340002B0FD17B681B681A6AF3
:104E200040F244431340002B07D17B681B681A688B
:104E30007B681B6822F001021A603B68002B04D1DA
:104E40007B68012283F83E2013E03B68042B04D1E9
:104E50007B68012283F83F200BE03B68082B04D1DC
:104E60007B68012283F8402003E07B68012283F8FD
:104E70004120002318460837BD4680BD0000014090
:104E800080B582B000AF78607B681B681B6903F057
:104E90000203022B22D17B681B68DB6803F002034C
:104EA000022B1BD17B681B686FF002021A617B68C2
:104EB00001221A777B681B689B6903F00303002BB0
:104EC00003D0786800F077FA05E0786800F069FAB6
:104ED000786800F07AFA7B6800221A777B681B6892
:104EE0001B6903F00403042B22D17B681B68DB6879
:104EF00003F00403042B1BD17B681B686FF00402D2
:104F00001A617B6802221A777B681B689B6903F42D
:104F10004073002B03D0786800F04DFA05E0786804
:104F200000F03FFA786800F050FA7B6800221A77A8
:104F30007B681B681B6903F00803082B22D17B6880
:104F40001B68DB6803F00803082B1BD17B681B6818
:104F50006FF008021A617B6804221A777B681B686D
:104F6000DB6903F00303002B03D0786800F023FA19
:104F700005E0786800F015FA786800F026FA7B689A
:104F800000221A777B681B681B6903F01003102B43
:104F900022D17B681B68DB6803F01003102B1BD148
:104FA0007B681B686FF010021A617B6808221A7711
:104FB0007B681B68DB6903F44073002B03D07868BF
:104FC00000F0F9F905E0786800F0EBF9786800F096
:104FD000FCF97B6800221A777B681B681B6903F069
:104FE0000103012B0ED17B681B68DB6803F0010312
:104FF000012B07D17B681B686FF001021A6178688A
:10500000FDF7E4FE7B681B681B6903F08003802BBF
:105010000ED17B681B68DB6803F08003802B07D10F
:105020007B681B686FF080021A61786800F026FDCB
:105030007B681B681B6903F04003402B0ED17B6823
:105040001B68DB6803F04003402B07D17B681B68BB
:105050006FF040021A61786800F0C1F97B681B6844
:105060001B6903F02003202B0ED17B681B68DB68D3
:1050700003F02003202B07D17B681B686FF0200210
:105080001A61786800F0F0FC00BF0837BD4680BDAB
:1050900080B586B000AFF860B9607A600023FB7518
:1050A000FB6893F83C30012B01D10223AEE0FB6892
:1050B000012283F83C207B680C2B00F29F8001A228
:1050C00052F823F0F9500008FD510008FD51000886
:1050D000FD51000839510008FD510008FD5100083C
:1050E000FD5100087B510008FD510008FD510008EA
:1050F000FD510008BB510008FB681B68B9681846E1
:1051000000F0F8F9FB681B689A69FB681B6842F0BD
:1051100008029A61FB681B689A69FB681B6822F0A9
:1051200004029A61FB681B689969BB681A69FB688D
:105130001B680A439A6164E0FB681B68B9681846FB
:1051400000F03EFAFB681B689A69FB681B6842F432
:1051500000629A61FB681B689A69FB681B6822F40D
:1051600080629A61FB681B689969BB681B691A02B7
:10517000FB681B680A439A6143E0FB681B68B968D7
:10518000184600F089FAFB681B68DA69FB681B683F
:1051900042F00802DA61FB681B68DA69FB681B6889
:1051A00022F00402DA61FB681B68D969BB681A69DE
:1051B000FB681B680A43DA6123E0FB681B68B96877
:1051C000184600F0D3FAFB681B68DA69FB681B68B5
:1051D00042F40062DA61FB681B68DA69FB681B68ED
:1051E00022F48062DA61FB681B68D969BB681B69BD
:1051F0001A02FB681B680A43DA6102E00123FB75AF
:1052000000BFFB68002283F83C20FB7D184618375E
:10521000BD4680BD80B584B000AF786039600023A2
:10522000FB737B6893F83C30012B01D10223B4E07F
:105230007B68012283F83C207B68022283F83D20B2
:105240007B681B689B68BB60BB6823F07703BB600F
:10525000BB6823F47F43BB607B681B68BA689A60B5
:105260003B681B68B3F5005F3ED0B3F5005F00F20A
:105270008780B3F5805F00F08680B3F5805F7FD8CC
:10528000702B1AD0702B7BD8602B50D0602B77D826
:10529000502B3CD0502B73D8402B58D0402B6FD87C
:1052A000302B64D0302B6BD8202B60D0202B67D8CC
:1052B000002B5CD0102B5AD062E07B6818683B68EA
:1052C00099683B685A683B68DB6800F019FB7B68AB
:1052D0001B689B68BB60BB6843F07703BB607B685F
:1052E0001B68BA689A604FE07B6818683B689968E9
:1052F0003B685A683B68DB6800F002FB7B681B6810
:105300009A687B681B6842F480429A603CE07B6844
:1053100018683B6859683B68DB681A4600F076FA03
:105320007B681B685021184600F0CFFA2CE07B68A0
:1053300018683B6859683B68DB681A4600F095FAC4
:105340007B681B686021184600F0BFFA1CE07B6890
:1053500018683B6859683B68DB681A4600F056FAE3
:105360007B681B684021184600F0AFFA0CE07B68B0
:105370001A683B681B681946104600F0A6FA03E05D
:105380000123FB7300E000BF7B68012283F83D200E
:105390007B68002283F83C20FB7B18461037BD4613
:1053A00080BD80B483B000AF786000BF0C37BD46CD
:1053B0005DF8047B704780B483B000AF786000BFB5
:1053C0000C37BD465DF8047B704780B483B000AFF6
:1053D000786000BF0C37BD465DF8047B704780B431
:1053E00083B000AF786000BF0C37BD465DF8047B2A
:1053F0007047000080B485B000AF786039607B688A
:105400001B68FB607B68344A93420FD07B68B3F122
:10541000804F0BD07B68314A934207D07B68304A7B
:10542000934203D07B682F4A934208D1FB6823F054
:105430007003FB603B685B68FA681343FB607B6842
:10544000254A93421BD07B68B3F1804F17D07B680D
:10545000224A934213D07B68214A93420FD07B6843
:10546000204A93420BD07B681F4A934207D07B6847
:105470001E4A934203D07B681D4A934208D1FB68C1
:1054800023F44073FB603B68DB68FA681343FB60FE
:10549000FB6823F080023B685B691343FB607B6819
:1054A000FA681A603B689A687B68DA623B681A6837
:1054B0007B689A627B68084A934203D13B681A6909
:1054C0007B681A637B6801225A6100BF1437BD46AE
:1054D0005DF8047B704700BF0000014000040040FD
:1054E00000080040000C0040004001400044014022
:1054F0000048014080B487B000AF786039607B68B5
:105500001B6A23F001027B681A627B681B6A7B615D
:105510007B685B683B617B689B69FB60FB6823F091
:105520007003FB60FB6823F00303FB603B681B68B0
:10553000FA681343FB607B6923F002037B613B68DD
:105540009B687A6913437B617B681C4A93420CD148
:105550007B6923F008037B613B68DB687A6913434E
:105560007B617B6923F004037B617B68134A934270
:1055700011D13B6923F480733B613B6923F40073D1
:105580003B613B685B693A6913433B613B689B69DC
:105590003A6913433B617B683A695A607B68FA68F1
:1055A0009A613B685A687B685A637B687A691A62B9
:1055B00000BF1C37BD465DF8047B7047000001400A
:1055C00080B487B000AF786039607B681B6A23F0D5
:1055D00010027B681A627B681B6A7B617B685B6870
:1055E0003B617B689B69FB60FB6823F4E043FB60E5
:1055F000FB6823F44073FB603B681B681B02FA687E
:105600001343FB607B6923F020037B613B689B684D
:105610001B017A6913437B617B681E4A93420DD15B
:105620007B6923F080037B613B68DB681B017A693F
:1056300013437B617B6923F040037B617B68154AE0
:10564000934213D13B6923F480633B613B6923F4AC
:1056500000633B613B685B699B003A6913433B61B4
:105660003B689B699B003A6913433B617B683A69DD
:105670005A607B68FA689A613B685A687B689A63EB
:105680007B687A691A6200BF1C37BD465DF8047BEF
:10569000704700BF0000014080B487B000AF786061
:1056A00039607B681B6A23F480727B681A627B68AE
:1056B0001B6A7B617B685B683B617B68DB69FB60C5
:1056C000FB6823F07003FB60FB6823F00303FB60BF
:1056D0003B681B68FA681343FB607B6923F4007323
:1056E0007B613B689B681B027A6913437B617B6823
:1056F0001D4A93420DD17B6923F400637B613B68B3
:10570000DB681B027A6913437B617B6923F4806346
:105710007B617B68144A934213D13B6923F4805325
:105720003B613B6923F400533B613B685B691B01B0
:105730003A6913433B613B689B691B013A69134318
:105740003B617B683A695A607B68FA68DA613B685A
:105750005A687B68DA637B687A691A6200BF1C3713
:10576000BD465DF8047B70470000014080B487B0FF
:1057700000AF786039607B681B6A23F480527B68D5
:105780001A627B681B6A3B617B685B687B617B6834
:10579000DB69FB60FB6823F4E043FB60FB6823F4F8
:1057A0004073FB603B681B681B02FA681343FB6095
:1057B0003B6923F400533B613B689B681B033A69D8
:1057C00013433B617B68104A934209D17B6923F400
:1057D00080437B613B685B699B017A6913437B6112
:1057E0007B687A695A607B68FA68DA613B685A6854
:1057F0007B681A647B683A691A6200BF1C37BD4631
:105800005DF8047B704700BF0000014080B487B0A2
:1058100000AFF860B9607A60FB681B6A7B61FB6867
:105820001B6A23F00102FB681A62FB689B693B61FB
:105830003B6923F0F0033B617B681B013A6913432A
:105840003B617B6923F00A037B617A69BB68134380
:105850007B61FB683A699A61FB687A691A6200BFEA
:105860001C37BD465DF8047B704780B487B000AF3D
:10587000F860B9607A60FB681B6A23F01002FB686D
:105880001A62FB689B697B61FB681B6A3B617B69F1
:1058900023F470437B617B681B037A6913437B614C
:1058A0003B6923F0A0033B61BB681B013A691343CA
:1058B0003B61FB687A699A61FB683A691A6200BFCA
:1058C0001C37BD465DF8047B704780B485B000AFDF
:1058D000786039607B689B68FB60FB6823F070032D
:1058E000FB603A68FB68134343F00703FB607B6887
:1058F000FA689A6000BF1437BD465DF8047B7047B4
:1059000080B487B000AFF860B9607A603B60FB6834
:105910009B687B617B6923F47F437B613B681A0250
:105920007B681A43BB6813437A6913437B61FB6846
:105930007A699A6000BF1C37BD465DF8047B7047EA
:1059400080B487B000AFF860B9607A60BB6803F0DC
:105950001F03012202FA03F37B61FB681A6A7B6969
:10596000DB431A40FB681A62FB681A6ABB6803F0E3
:105970001F03796801FA03F31A43FB681A6200BF38
:105980001C37BD465DF8047B7047000080B485B0CD
:1059900000AF786039607B6893F83C30012B01D10F
:1059A000022350E07B68012283F83C207B680222BE
:1059B00083F83D207B681B685B68FB607B681B6825
:1059C0009B68BB60FB6823F07003FB603B681B684F
:1059D000FA681343FB607B681B68FA685A607B684F
:1059E0001B681C4A934218D07B681B68B3F1804F38
:1059F00013D07B681B68184A93420ED07B681B68E3
:105A0000164A934209D07B681B68154A934204D01A
:105A10007B681B68134A93420CD1BB6823F0800358
:105A2000BB603B685B68BA681343BB607B681B68FC
:105A3000BA689A607B68012283F83D207B68002267
:105A400083F83C20002318461437BD465DF8047BDC
:105A5000704700BF00000140000400400008004003
:105A6000000C00400040014080B483B000AF78607B
:105A700000BF0C37BD465DF8047B704780B483B02F
:105A800000AF786000BF0C37BD465DF8047B7047FF
:105A900080B485B000AF0346FB800023FB60B7F9FC
:105AA0000630842B05D0B7F90620FB681344033376
:105AB000FB60FB6818461437BD465DF8047B7047F1
:105AC00080B500AF00F0CCFF0023184680BDF0B5D4
:105AD00089B004AF786039607B685B69002B20D0A7
