:020000040800F2
:1000000000000120C1340008353200083B320008EE
:1000100053320008593200085F3200080000000027
:10002000000000000000000000000000D17B00087C
:100030006532000800000000217E0008897E00086B
:100040001135000811350008113500081135000878
:100050001135000811350008113500087332000809
:10006000813200088F3200089D32000811350008E7
:100070001135000811350008113500081135000848
:100080001135000811350008113500080000000086
:10009000000000000000000000000000AB3200087B
:1000A000BD3200081135000811350008113500086F
:1000B000D932000811350008113500081135000843
:1000C00011350008113500081135000811350008F8
:1000D0001135000811350008113500080000000036
:1000E000ED3200081135000811350008000000004D
:1000F00000000000000000000000000011350008B2
:100100000000000011350008113500081135000805
:1001100000000000000000000000000000000000DF
:100120001135000811350008113500081135000897
:100130001135000800000000000000000000000071
:100140000000000000000000000000001135000861
:10015000FD3200081135000811350008113500087E
:1001600011350008113500080000000000000000F3
:10017000000000000000000000000000000000007F
:100180000000000011350008000000000000000021
:04019000113500081D
:1001A00010B5054C237833B9044B13B10448AFF3B1
:1001B00000800123237010BDB40500200000000062
:1001C000A4B1000808B5034B1BB103490348AFF3C2
:1001D000008008BD00000000B8050020A4B10008A0
:1001E000034613F8012B002AFBD1181A0138704777
:1001F00001F0FF01102A2BDB10F0070F08D010F8D8
:10020000013B013A8B422DD010F0070F42B3F6D1DB
:10021000F0B441EA012141EA014122F007047FF0F4
:1002200000070023F0E80256083C85EA010586EA4B
:10023000010685FA47F5A3FA87F586FA47F6A5FA87
:1002400087F68EB9EED1F0BC01F0FF0102F0070293
:1002500032B110F8013B013A83EA010313B1F8D13E
:100260000020704701387047002D06BF354603381F
:10027000073815F0010F07D1013015F4807F02BF58
:10028000013015F4C03F0130F0BC0138704700BFA9
:1002900081F0004102E000BF83F0004330B54FEA37
:1002A00041044FEA430594EA050F08BF90EA020FA4
:1002B0001FBF54EA000C55EA020C7FEA645C7FEA37
:1002C000655C00F0E2804FEA5454D4EB5555B8BF5A
:1002D0006D420CDD2C4480EA020281EA030382EACB
:1002E000000083EA010180EA020281EA0303362D5D
:1002F00088BF30BD11F0004F4FEA01314FF4801C30
:100300004CEA113102D0404261EB410113F0004F41
:100310004FEA03334CEA133302D0524263EB4303F8
:1003200094EA050F00F0A780A4F10104D5F1200E96
:100330000DDB02FA0EFC22FA05F2801841F10001F1
:1003400003FA0EF2801843FA05F359410EE0A5F1C5
:1003500020050EF1200E012A03FA0EFC28BF4CF0F6
:10036000020C43FA05F3C01851EBE37101F00045AC
:1003700007D54FF0000EDCF1000C7EEB00006EEBB9
:100380000101B1F5801F1BD3B1F5001F0CD3490843
:100390005FEA30004FEA3C0C04F101044FEA44529A
:1003A00012F5800F80F09A80BCF1004F08BF5FEA21
:1003B000500C50F1000041EB045141EA050130BD01
:1003C0005FEA4C0C404141EB0101013C28BFB1F513
:1003D000801FE9D291F0000F04BF01460020B1FA5E
:1003E00081F308BF2033A3F10B03B3F120020CDA31
:1003F0000C3208DD02F1140CC2F10C0201FA0CF00F
:1004000021FA02F10CE002F11402D8BFC2F1200C73
:1004100001FA02F120FA0CFCDCBF41EA0C01904029
:10042000E41AA2BF01EB0451294330BD6FEA040472
:100430001F3C1CDA0C340EDC04F11404C4F120025D
:1004400020FA04F001FA02F340EA030021FA04F36F
:1004500045EA030130BDC4F10C04C4F1200220FAC6
:1004600002F001FA04F340EA0300294630BD21FA04
:1004700004F0294630BD94F0000F83F4801306BFCA
:1004800081F480110134013D4EE77FEA645C18BFBE
:100490007FEA655C29D094EA050F08BF90EA020F55
:1004A00005D054EA000C04BF1946104630BD91EA4D
:1004B000030F1EBF0021002030BD5FEA545C05D150
:1004C0004000494128BF41F0004130BD14F580048F
:1004D0003CBF01F5801130BD01F0004545F0FE4103
:1004E00041F470014FF0000030BD7FEA645C1ABF38
:1004F000194610467FEA655C1CBF0B46024650EA6F
:10050000013406BF52EA033591EA030F41F400219A
:1005100030BD00BF90F0000F04BF0021704730B520
:100520004FF4806404F132044FF000054FF00001F5
:1005300050E700BF90F0000F04BF0021704730B5B6
:100540004FF4806404F1320410F0004548BF40428B
:100550004FF000013EE700BF42004FEAE2014FEAE0
:1005600031014FEA02701FBF12F07F4393F07F4FBB
:1005700081F06051704732F07F4208BF704793F0BE
:100580007F4F04BF41F40021704730B54FF46074D1
:1005900001F0004521F000411CE700BF50EA0102D4
:1005A00008BF704730B54FF000050AE050EA01027D
:1005B00008BF704730B511F0004502D5404261EBED
:1005C00041014FF4806404F132045FEA915C3FF42E
:1005D000D8AE4FF003025FEADC0C18BF03325FEACB
:1005E000DC0C18BF033202EBDC02C2F1200300FA7C
:1005F00003FC20FA02F001FA03FE40EA0E0021FAA1
:1006000002F11444BDE600BF70B54FF0FF0C4CF48E
:10061000E06C1CEA11541DBF1CEA135594EA0C0F40
:1006200095EA0C0F00F0DEF82C4481EA030621EA7B
:100630004C5123EA4C5350EA013518BF52EA0335B6
:1006400041F4801143F4801338D0A0FB02CE4FF068
:100650000005E1FB02E506F00042E0FB03E54FF098
:100660000006E1FB03569CF0000F18BF4EF0010E90
:10067000A4F1FF04B6F5007F64F5407404D25FEA8C
:100680004E0E6D4146EB060642EAC62141EA55513F
:100690004FEAC52040EA5E504FEACE2EB4F1FD0C81
:1006A00088BFBCF5E06F1ED8BEF1004F08BF5FEAFF
:1006B000500E50F1000041EB045170BD06F00046B1
:1006C00046EA010140EA020081EA0301B4EB5C045E
:1006D000C2BFD4EB0C0541EA045170BD41F4801156
:1006E0004FF0000E013C00F3AB8014F1360FDEBF7B
:1006F000002001F0004170BDC4F10004203C35DA57
:100700000C341BDC04F11404C4F1200500FA05F3D9
:1007100020FA04F001FA05F240EA020001F000427A
:1007200021F0004110EBD37021FA04F642EB0601F0
:100730005EEA430E08BF20EAD37070BDC4F10C041A
:10074000C4F1200500FA04F320FA05F001FA04F2DE
:1007500040EA020001F0004110EBD37041F10001CA
:100760005EEA430E08BF20EAD37070BDC4F12005D5
:1007700000FA05F24EEA020E20FA04F301FA05F23D
:1007800043EA020321FA04F001F0004121FA04F2E5
:1007900020EA020000EBD3705EEA430E08BF20EAB5
:1007A000D37070BD94F0000F0FD101F000464000EF
:1007B00041EB010111F4801F08BF013CF7D041EA71
:1007C000060195F0000F18BF704703F00046520075
:1007D00043EB030313F4801F08BF013DF7D043EA46
:1007E0000603704794EA0C0F0CEA135518BF95EAFC
:1007F0000C0F0CD050EA410618BF52EA4306D1D183
:1008000081EA030101F000414FF0000070BD50EAA1
:10081000410606BF1046194652EA430619D094EA2B
:100820000C0F02D150EA013613D195EA0C0F05D115
:1008300052EA03361CBF104619460AD181EA030169
:1008400001F0004141F0FE4141F470014FF0000021
:1008500070BD41F0FE4141F4780170BD70B54FF0BC
:10086000FF0C4CF4E06C1CEA11541DBF1CEA13553C
:1008700094EA0C0F95EA0C0F00F0A7F8A4EB05041E
:1008800081EA030E52EA03354FEA013100F0888015
:100890004FEA03334FF0805545EA131343EA1263DE
:1008A0004FEA022245EA111545EA10654FEA002693
:1008B0000EF000419D4208BF964244F1FD0404F54C
:1008C000407402D25B084FEA3202B61A65EB0305A8
:1008D0005B084FEA32024FF480104FF4002CB6EB65
:1008E000020E75EB030E22BFB61A754640EA0C00E5
:1008F0005B084FEA3202B6EB020E75EB030E22BF25
:10090000B61A754640EA5C005B084FEA3202B6EB65
:10091000020E75EB030E22BFB61A754640EA9C0024
:100920005B084FEA3202B6EB020E75EB030E22BFF4
:10093000B61A754640EADC0055EA060E18D04FEAB2
:10094000051545EA16754FEA06164FEAC30343EA52
:1009500052734FEAC2025FEA1C1CC0D111F4801F1F
:100960000BD141EA00014FF000004FF0004CB6E718
:1009700011F4801F04BF01430020B4F1FD0C88BFB7
:10098000BCF5E06F3FF6AFAEB5EB030C04BFB6EBC2
:10099000020C5FEA500C50F1000041EB045170BDB5
:1009A0000EF0004E4EEA113114EB5C04C2BFD4EBE2
:1009B0000C0541EA045170BD41F480114FF0000E66
:1009C000013C90E645EA060E8DE60CEA135594EAE2
:1009D0000C0F08BF95EA0C0F3FF43BAF94EA0C0FE5
:1009E0000AD150EA01347FF434AF95EA0C0F7FF45A
:1009F00025AF104619462CE795EA0C0F06D152EAAE
:100A000003353FF4FDAE1046194622E750EA410691
:100A100018BF52EA43067FF4C5AE50EA41047FF4A2
:100A20000DAF52EA43057FF4EBAE12E74FF0FF3C07
:100A300006E000BF4FF0010C02E000BF4FF0010CD8
:100A40004DF804CD4FEA410C7FEA6C5C4FEA430C51
:100A500018BF7FEA6C5C1BD001B050EA410C0CBFA0
:100A600052EA430C91EA030F02BF90EA020F002002
:100A7000704710F1000F91EA030F58BF994208BF69
:100A800090422CBFD8176FEAE37040F00100704726
:100A90004FEA410C7FEA6C5C02D150EA013C07D17D
:100AA0004FEA430C7FEA6C5CD6D152EA033CD3D0C8
:100AB0005DF8040B704700BF8446104662468C46C2
:100AC0001946634600E000BF01B5FFF7B7FF0028F5
:100AD00048BF10F1000F01BD4DF808EDFFF7F4FF1E
:100AE0000CBF012000205DF808FB00BF4DF808EDA9
:100AF000FFF7EAFF34BF012000205DF808FB00BFCC
:100B00004DF808EDFFF7E0FF94BF012000205DF8ED
:100B100008FB00BF4DF808EDFFF7CEFF94BF0120A2
:100B200000205DF808FB00BF4DF808EDFFF7C4FF9B
:100B300034BF012000205DF808FB00BF4FEA410CE4
:100B40007FEA6C5C02D150EA013C0AD14FEA430CC7
:100B50007FEA6C5C02D152EA033C02D14FF0000004
:100B600070474FF0010070474FEA410212F5001242
:100B700015D211D56FF47873B3EB625212D94FEAE4
:100B8000C12343F0004343EA505311F0004F23FACE
:100B900002F018BF404270474FF00000704750EA23
:100BA000013005D111F0004008BF6FF000407047E0
:100BB0004FF00000704700BF4A0011D212F500123A
:100BC00011D20DD56FF47873B3EB62520ED44FEAA5
:100BD000C12343F0004343EA505323FA02F0704725
:100BE0004FF00000704750EA013002D14FF0FF3063
:100BF00070474FF0000070474FEA4102B2F1E04306
:100C000024BFB3F5001CDCF1FE5C0DD901F0004CF3
:100C10004FEAC0024CEA5070B2F1004F40EB830043
:100C200008BF20F00100704711F0804F21D113F16F
:100C30003872BCBF01F00040704741F480114FEAA8
:100C40005252C2F11802C2F1200C10FA0CF320FA31
:100C500002F018BF40F001004FEAC1234FEAD3234E
:100C600003FA0CFC40EA0C0023FA02F34FEA4303B8
:100C7000CCE77FEA625307D150EA01331EBF4FF041
:100C8000FE4040F44000704701F0004040F0FE405C
:100C900040F40000704700BF53B94AB9002908BFAB
:100CA00000281CBF4FF0FF314FF0FF3000F074B947
:100CB000ADF1080C6DE904CE00F006F8DDF804E0B3
:100CC000DDE9022304B070472DE9F047089D044692
:100CD0008E46002B4DD18A42944669D9B2FA82F2EF
:100CE00052B101FA02F3C2F1200120FA01F10CFA2B
:100CF00002FC41EA030E94404FEA1C48210CBEFB63
:100D0000F8F61FFA8CF708FB16E341EA034306FBEB
:100D100007F199420AD91CEB030306F1FF3080F07A
:100D20001F81994240F21C81023E63445B1AA4B2C7
:100D3000B3FBF8F008FB103344EA034400FB07F769
:100D4000A7420AD91CEB040400F1FF3380F00A81AA
:100D5000A74240F207816444023840EA0640E41B9F
:100D600000261DB1D4400023C5E900433146BDE84B
:100D7000F0878B4209D9002D00F0EF800026C5E9ED
:100D8000000130463146BDE8F087B3FA83F6002E05
:100D90004AD18B4202D3824200F2F980841A61EB7D
:100DA000030301209E46002DE0D0C5E9004EDDE79B
:100DB00002B9FFDEB2FA82F2002A40F09280A1EB83
:100DC0000C014FEA1C471FFA8CFE0126200CB1FBD8
:100DD000F7F307FB131140EA01410EFB03F08842D1
:100DE00008D91CEB010103F1FF3802D2884200F25E
:100DF000CB804346091AA4B2B1FBF7F007FB1011F0
:100E000044EA01440EFB00FEA64508D91CEB04048D
:100E100000F1FF3102D2A64500F2BB800846A4EBE8
:100E20000E0440EA03409CE7C6F12007B34022FAD3
:100E300007FC4CEA030C20FA07F401FA06F31C4302
:100E4000F9404FEA1C4900FA06F3B1FBF9F8200C0F
:100E50001FFA8CFE09FB181140EA014108FB0EF055
:100E6000884202FA06F20BD91CEB010108F1FF3AA5
:100E700080F08880884240F28580A8F102086144B1
:100E8000091AA4B2B1FBF9F009FB101144EA0141BF
:100E900000FB0EFE8E4508D91CEB010100F1FF346A
:100EA0006CD28E456AD90238614440EA0840A0FB02
:100EB0000294A1EB0E01A142C846A64656D353D0D8
:100EC0005DB1B3EB080261EB0E0101FA07F722FAFC
:100ED00006F3F1401F43C5E9007100263146BDE825
:100EE000F087C2F12003D8400CFA02FC21FA03F388
:100EF000914001434FEA1C471FFA8CFEB3FBF7F009
:100F000007FB10360B0C43EA064300FB0EF69E422D
:100F100004FA02F408D91CEB030300F1FF382FD2C6
:100F20009E422DD9023863449B1B89B2B3FBF7F66E
:100F300007FB163341EA034106FB0EF38B4208D947
:100F40001CEB010106F1FF3816D28B4214D9023E88
:100F50006144C91A46EA004638E72E46284605E7A6
:100F60000646E3E61846F8E64B45A9D2B9EB020877
:100F700064EB0C0E0138A3E74646EAE7204694E707
:100F80004046D1E7D0467BE7023B614432E730463A
:100F900009E76444023842E7704700BF80B400AFFD
:100FA000084BDB68074A23F48073D360054B1B684A
:100FB000044A23F00103136000BFBD465DF8047BC3
:100FC000704700BF0000014080B582B000AF03460B
:100FD00087ED000AFB71FB79032B02D0FB79042B10
:100FE00018D1DFED446AD7ED007A86EEA77ADFEDFF
:100FF000426AC7EE267A414BC3ED007AFB79032B98
:1010000001D13F4B00E03F4B3F4A13603F4B33223F
:101010001A602DE0FB79012B13D1DFED366AD7ED95
:10102000007A86EEA77ADFED3A6AC7EE267A334B6E
:10103000C3ED007A344B374A1A60344B66221A608B
:1010400016E0FB79022B13D1DFED2A6AD7ED007A87
:1010500086EEA77ADFED306AC7EE267A274BC3ED1E
:10106000007A294B2D4A1A60284B4FF480721A607F
:10107000224B1B681846FFF76FFA4FF00002284B0F
:10108000FFF7ECFB02460B4610461946FFF794FDAE
:1010900003469AB2234B1A80234B00229A62214BBB
:1010A0001A88214BDA62204B00225A621F4B1B78B0
:1010B00083F00103DBB2002B0CD01D4B186A124BDE
:1010C0001B681946114B1B681A4A02F027FC174B84
:1010D00001221A70144BDB68134A43F48073D36007
:1010E000114B1B68104A43F00103136000BF08371F
:1010F000BD4680BD00007A4400004C42D00500206F
:101100000002002068020020D8050020DC05002035
:101110000000CC42D00200200000804300000020EC
:101120000000903FD405002000000140E0050020B1
:10113000940800201404024080B584B000AF034638
:101140000A46FB711346BB71FB793B73BB797B731A
:1011500000224FF480710C4803F03EF807F10C01B7
:101160004FF47A730222094803F081FD0346FB73B2
:1011700001224FF48071044803F02EF8FB7B1846DF
:101180001037BD4680BD00BF000002403C08002073
:1011900080B582B000AF0346FB710B4B1B681B7B15
:1011A000FA799A420AD0084B1B68FA791A73FB79CC
:1011B00019460920FFF7C0FF034600E00023184648
:1011C0000837BD4680BD00BFE405002080B483B071
:1011D00000AF0346FB71FB795A2B00F2178101A285
:1011E00052F823F051130008551300085913000852
:1011F0005D130008611300086513000869130008F7
:101200006D13000871130008751300080D14000811
:101210000D1400080D1400080D1400080D1400082A
:101220000D1400080D1400080D1400080D1400081A
:101230000D1400080D1400080D1400080D1400080A
:101240000D1400080D1400080D1400080D140008FA
:101250000D1400080D1400080D1400080D140008EA
:101260000D1400080D1400080D1400080D140008DA
:101270000D1400080D1400080D1400080D140008CA
:101280000D1400080D1400080D1400080D140008BA
:101290000D1400080D140008091400080D140008AE
:1012A0000D140008791300087D130008811300084D
:1012B00085130008891300088D1300089113000896
:1012C00095130008991300089D1300080D140008D9
:1012D0000D1400080D1400080D1400080D1400086A
:1012E0000D1400080D140008A1130008A513000830
:1012F000A9130008AD130008B1130008B5130008C6
:10130000B9130008BD130008C1130008C513000875
:10131000C9130008CD130008D1130008D513000825
:10132000D9130008DD130008E1130008E5130008D5
:10133000E9130008ED130008F1130008F513000885
:10134000F9130008FD130008011400080514000833
:101350007E235CE030235AE06D2358E0792356E089
:10136000332354E05B2352E05F2350E070234EE0D0
:101370007F234CE07B234AE07E2348E0302346E095
:101380006D2344E0792342E0332340E05B233EE0D9
:101390005F233CE070233AE07F2338E07B2336E094
:1013A000772334E01F2332E04E2330E03D232EE04C
:1013B0004F232CE047232AE05E2328E0372326E052
:1013C000302324E03C2322E02F2320E00E231EE0E4
:1013D00055231CE015231AE01D2318E0672316E0AF
:1013E000732314E0052312E05B2310E00F230EE0CB
:1013F0003E230CE01C230AE05C2308E0492306E0BE
:101400003B2304E06D2302E0012300E000231846A3
:101410000C37BD465DF8047B704700BF80B582B0D5
:1014200000AF03460A46FB711346BB71BB791846F1
:10143000FFF7CCFE03461A46FB7911461846FFF724
:101440007BFE00BF0837BD4680BD80B584B000AFCD
:1014500003463960FB710823FB603868FEF7C0FE65
:101460000346082B22D80020FFF792FE0023FB72D0
:1014700015E0FB79FA689A421AD0FB68DAB2FB7978
:10148000D31AD8B2FB7A3A6813441B781946FFF78F
:10149000C5FFFB68013BFB60FB7A0133FB72FB7A03
:1014A0003A6813441B78002BE3D102E000BF00E050
:1014B00000BF1037BD4680BD80B584B000AF7860F6
:1014C0000823FB607868FEF78BFE0346082B1BD8C9
:1014D0000020FFF75DFE0023FB720EE0FB68D8B230
:1014E000FB7A7A6813441B781946FFF797FFFB686D
:1014F000013BFB60FB7A0133FB72FB7A7A68134491
:101500001B78002BEAD100E000BF1037BD4680BD3C
:1015100090B587B000AF87ED010A08237B6178683A
:10152000FFF71AF802460B4607F10800264907F0B4
:10153000CFFB0023FB7434E0FB7C013318333B44C6
:1015400013F8103C2E2B12D17B69DCB2FB7C1833D4
:101550003B4413F8103C1846FFF738FE034663F08F
:101560007F03DBB219462046FFF7E6FD11E0FB7C66
:1015700018333B4413F8103C2E2B0ED07B69DAB2A3
:10158000FB7C18333B4413F8103C19461046FFF718
:1015900045FF7B69013B7B6100E000BFFB7C0133C1
:1015A000FB74FB7C18333B4413F8103C002BC3D175
:1015B00007F108031846FEF713FE0346DBB2184690
:1015C0001C37BD4690BD00BFC8B1000880B584B0CF
:1015D00000AF87ED010A97ED010AFFF799FF034677
:1015E000FB73FB7B18461037BD4680BD80B584B0C9
:1015F00000AF87ED010A97ED010AFFF789FF034667
:10160000FB73FB7B04491846FFF71FFFFB7B184663
:101610001037BD4680BD00BFD0B1000880B582B094
:1016200000AF0346FB71FB7903491846FFF70DFF36
:1016300000BF0837BD4680BDD4B1000880B582B078
:1016400000AF0123FB7107E0FB7900211846FFF78B
:1016500073FDFB790133FB71FB79082BF4D900BFD3
:1016600000BF0837BD4680BD80B584B000AF78604C
:10167000124A7B681360114B1B681B7B19460920BB
:10168000FFF75AFD0D4B1B685B7B19460A20FFF7DD
:1016900053FD0A4B1B689B7B19460B20FFF74CFD43
:1016A00001210C20FFF748FD0346FB73FFF7C6FF3F
:1016B000FB7B18461037BD4680BD00BFE405002007
:1016C00080B584B000AF87ED010AC7ED000ADFEDF9
:1016D000186A97ED017AC6EE877AFCEEE77A17EE84
:1016E000903AFB60FB6807EE903AB8EE677AD7ED68
:1016F000007A27EE277ADFED0F6AC7EE267AFCEE36
:10170000E77A17EE903ABB600B4B00229A620A4BC5
:1017100000225A62084AFB68D362074ABB685363D7
:101720000021064803F0E4FD00BF1037BD4680BD30
:1017300000007A470000C842000C0040DC0800208E
:1017400080B500AF044B00225A620021034803F029
:101750007FFE00BF80BD00BF000C0040DC08002001
:1017600080B485B000AFF860B9607A60FB68074A62
:101770001A60BB68064A1A607B6880221A6000BF44
:101780001437BD465DF8047B704700BFE8050020B4
:101790003C06002080B582B000AF0346FB800E4AB5
:1017A000FB8813800D4803F0B9FC282001F0FAFFF4
:1017B000172001F0F7FF072001F0F4FF082001F0E7
:1017C000F1FF0A2001F0EEFF092001F0EBFF00BF5E
:1017D0000837BD4680BD00BFEA090020240900206B
:1017E000B0B5ACB000AF01F095FE00F0CFF800F05E
:1017F0008DFA00F06BFA00F033F900F02DFA00F0EA
:10180000B5F900F063F94F4B07F1A0040FCB84E862
:101810000F0007F1A0031846FFF726FFFFF70EFFA2
:101820004948FFF749FE002202210A2004F0B8FED1
:101830000346464A1360002209210A2004F0B0FE44
:101840000346434A1360002204210A2004F0A8FE44
:101850000346404A1360002204210A2004F0A0FE3F
:1018600003463D4A13603D4B07F190040FCB84E8DB
:101870000F0007F190030021184604F0D4FC034642
:10188000374A1360374B07F174041D460FCD0FC460
:1018900095E8070084E8070007F174030021184663
:1018A00004F061FC0346304A1360304B07F15804E2
:1018B0001D460FCD0FC495E8070084E8070007F127
:1018C00058030021184604F04EFC0346284A1360D2
:1018D000284B07F13C041D460FCD0FC495E80700C7
:1018E00084E8070007F13C030021184604F03BFCA4
:1018F0000346214A1360214B07F120041D460FCDFA
:101900000FC495E8070084E8070007F120030021D1
:10191000184604F028FC0346194A1360194B3C1D75
:101920001D460FCD0FC495E8070084E807003B1D56
:101930000021184604F017FC0346134A136004F014
:101940000BFCFEE720B2000814B20008F0090020EA
:10195000F4090020F8090020FC09002030B200083A
:10196000E009002040B20008CC0900205CB2000869
:10197000D009002078B20008D409002094B20008F1
:10198000D8090020B0B20008DC09002080B594B06E
:1019900000AF07F1200330220021184606F026FD93
:1019A00007F10C0300221A605A609A60DA601A612B
:1019B0000023BB60284B1B6C274A43F08053136401
:1019C000254B1B6C03F08053BB60BB6800237B601E
:1019D000224B1B6823F44043204A43F40043136026
:1019E0001E4B1B6803F440437B607B6801233B6212
:1019F0004FF480337B620223BB634FF48003FB63AD
:101A000019233B6480237B640223BB640423FB64AF
:101A100007F12003184602F02BFC0346002B01D0EF
:101A200001F048FA0F23FB6002233B6100237B6136
:101A30004FF48053BB610023FB6107F10C030221CB
:101A4000184602F08DFE0346002B01D001F032FA59
:101A500000BF5037BD4680BD0038024000700040D6
:101A600080B500AF174B184A1A60164B4FF48272BC
:101A70005A60144B00229A60124B0022DA60114B1C
:101A800000221A610F4B00225A610E4B4FF4007274
:101A90009A610C4B0822DA610A4B00221A62094B48
:101AA00000225A62074B00229A62064B0A22DA622F
:101AB000044803F053F80346002B01D001F0FAF973
:101AC00000BF80BD3C0800200030014080B586B0DA
:101AD00000AF07F1080300221A605A609A60DA60CA
:101AE0003B4600221A605A601E4B1F4A1A601D4B6B
:101AF00000225A601B4B00229A601A4B4FF6FF726D
:101B0000DA60184B00221A61164B00225A61154BFD
:101B100000229A61134803F0B1FA0346002B01D06A
:101B200001F0C8F94FF48053BB6007F10803194670
:101B30000C4803F0BBFE0346002B01D001F0BAF9BC
:101B400000233B6000237B603B461946054804F0B8
:101B500069FA0346002B01D001F0ACF900BF183739
:101B6000BD4680BD940800200000014080B58EB0C5
:101B700000AF07F1280300221A605A609A60DA6009
:101B800007F1200300221A605A603B1D00221A60F0
:101B90005A609A60DA601A615A619A612C4B2D4A38
:101BA0001A602B4B00225A60294B00229A60284B66
:101BB0004FF0FF32DA60264B00221A61244B0022DC
:101BC0009A61234803F05AFA0346002B01D001F032
:101BD00071F94FF48053BB6207F1280319461C4882
:101BE00003F064FE0346002B01D001F063F91848AE
:101BF00003F025FB0346002B01D001F05BF9002325
:101C00003B6200237B6207F120031946104804F071
:101C100009FA0346002B01D001F04CF960237B60E8
:101C20000023BB600023FB6000237B613B1D00227F
:101C30001946074803F078FD0346002B01D001F058
:101C400039F9034801F040FA00BF3837BD4680BD7E
:101C5000DC080020000C004080B584B000AF3B469B
:101C600000221A605A609A60DA60164B164A1A60AF
:101C7000144B40F27F225A60124B00229A60114BA3
:101C800042F20F72DA600F4B00221A610D4B0022F4
:101C90009A610C4803F0F2F90346002B01D001F0E1
:101CA00009F94FF480533B603B461946054803F061
:101CB000FDFD0346002B01D001F0FCF800BF1037FA
:101CC000BD4680BD240900200040014080B582B09F
:101CD00000AF00237B600C4B1B6B0B4A43F480036B
:101CE0001363094B1B6B03F480037B607B6800224A
:101CF0000521442001F02CFD442001F045FD00BFEA
:101D00000837BD4680BD00BF0038024080B58AB0AC
:101D100000AF07F1140300221A605A609A60DA607B
:101D20001A6100233B615A4B1B6B594A43F0040371
:101D30001363574B1B6B03F004033B613B690023A8
:101D4000FB60534B1B6B524A43F080031363504BB1
:101D50001B6B03F08003FB60FB680023BB604C4BF4
:101D60001B6B4B4A43F001031363494B1B6B03F09E
:101D70000103BB60BB6800237B60454B1B6B444A7F
:101D800043F002031363424B1B6B03F002037B60BF
:101D90007B6800224FF400513E4802F01DFA0022F9
:101DA000FF213D4802F018FA00224FF480713B48B1
:101DB00002F012FA4FF400537B610123BB61002350
:101DC000FB6100233B6207F114031946314802F01E
:101DD00067F840F21E637B614FF40413BB6101237B
:101DE000FB6107F1140319462C4802F059F8FF2350
:101DF0007B610123BB610023FB6100233B6207F190
:101E000014031946244802F04BF84FF480737B61A9
:101E10000123BB610023FB6101233B6207F1140333
:101E200019461E4802F03CF800220521072001F067
:101E30008FFC072001F0A8FC00220521082001F0FA
:101E400087FC082001F0A0FC00220521092001F0F8
:101E50007FFC092001F098FC002205210A2001F0F6
:101E600077FC0A2001F090FC00220521172001F0E8
:101E70006FFC172001F088FC00220521282001F0CA
:101E800067FC282001F080FC00BF2837BD4680BDDC
:101E900000380240000802400004024000000240F6
:101EA00080B582B000AF7860012004F0A8F9FBE7AC
:101EB00080B588B000AF78604FF07E53BB610023DF
:101EC000FB6007F1100300221A601A710023FB77F0
:101ED0000023BB83A64B1B6807F11C016422184634
:101EE00004F052FDBB8BB3F5806F00F03083B3F587
:101EF000806F00F3BA85102B28DC022BC0F2B58569
:101F0000023B0E2B00F2B18501A252F823F000BF74
:101F1000591F00086B2A0008672000086B2A000878
:101F20006B2A00086B2A00082B2800086B2A00087F
:101F30006B2A00086B2A00086B2A00086B2A00082D
:101F40006B2A00086B2A0008172A0008B3F5007FE7
:101F500000F0328100F089BD864B1B78002B1AD02F
:101F6000FB7F002B01D1844A00E0844A07F10C0377
:101F70008349184606F0ACFEFB7F002B0CBF012303
:101F80000023DBB2FB777F4B186807F10C010023BD
:101F9000322204F05FFB7C4B1B78002B22D07B4B62
:101FA0001B780133DAB2794B1A70784B1B78042B0B
:101FB00002D9764B01221A70744B1B785A1E1346B5
:101FC000DB001344724A1A4407F10C036C491846AB
:101FD00006F07EFE6B4B186807F10C0100233222DD
:101FE00004F038FB6B4B1B78002B1FD06A4B1B781F
:101FF0000133DAB2684B1A70674B1A78674B1B785B
:102000009A4202D9644B01221A70FB7F002B02D145
:10201000634B1B6801E0634B1B68BB61624B186834
:1020200007F118010023322204F014FB5F4B1B78E8
:10203000002B00F01185584B1B780133DAB2564B58
:102040001A70554B1A78554B1B789A4202D9524B4D
:1020500001221A70564B186800233222554904F0A9
:10206000F9FA00F0F9BC434B1B78002B1AD0FB7F28
:10207000002B01D1404A00E0404A07F10C034049DF
:10208000184606F025FEFB7F002B0CBF0123002322
:10209000DBB2FB773B4B186807F10C0100233222BF
:1020A00004F0D8FA384B1B78002B22D0374B1B7822
:1020B000013BDAB2354B1A70344B1B78002B02D13E
:1020C000324B04221A70314B1B785A1E1346DB0028
:1020D00013442F4A1A4407F10C032949184606F005
:1020E000F7FD284B186807F10C010023322204F099
:1020F000B1FA284B1B78002B1ED0274B1B78013BD5
:10210000DAB2254B1A70244B1B78002B03D1234BDA
:102110001A78214B1A70FB7F002B02D1204B1B68D1
:1021200001E0204B1B68BB611F4B186807F11801C9
:102130000023322204F08EFA1C4B1B78002B00F097
:102140008D84154B1B78013BDAB2134B1A70124B7E
:102150001B78002B03D1114B1A780F4B1A70144BBC
:10216000186800233222134904F074FA00F076BC98
:10217000F0090020E4090020CCB20008D8B2000821
:10218000E4B20008F4090020E5090020AC030020B7
:10219000B0030020E60900209D0300209E030020DC
:1021A000A4030020A0030020F8090020E709002074
:1021B000FC090020A8030020A94B1B78002B00F08D
:1021C0002881FB7F002B40F09280A64B1B681846AD
:1021D000FEF7C2F902460B46A3490978012903D14B
:1021E00097A1D1E9000103E04FF000004FF000019A
:1021F000FEF754F802460B4610461946FEF7FCFC63
:102200000346984A1360984B1B78022B02D1B7EE15
:10221000007A01E09FED957A924BD3ED007A77EE4C
:10222000277A904BC3ED007A8F4B1B78032B02D19A
:10223000B2EE047A01E09FED8D7A8A4BD3ED007AFD
:1022400077EE277A874BC3ED007A874B1B78042BF8
:1022500002D19FED877A01E09FED847A814BD3ED27
:10226000007A77EE277A7F4BC3ED007A7D4B1B68AF
:102270001846FEF771F974A3D3E90023FEF754FC66
:102280000346002B0CD0774BD3ED007A9FED787A84
:10229000F4EEC77AF1EE10FA02D5764B03221A70EB
:1022A000704B1B681846FEF757F969A3D3E9002362
:1022B000FEF73AFC0346002B02D06E4B04221A7044
:1022C000684B1B681846FEF747F963A3D3E9002360
:1022D000FEF72AFC0346002B02D0624B664A1A60C6
:1022E000664B1868002332225E4904F0B3F9FB7F85
:1022F000012B40F08E80624B1B681846FEF72CF9CC
:1023000002460B4658490978012903D14CA1D1E96D
:10231000000103E04FF000004FF00001FDF7BEFFA9
:1023200002460B4610461946FEF766FC0346544A21
:1023300013604D4B1B78022B02D1B7EE007A01E0FF
:102340009FED4A7A4E4BD3ED007A77EE277A4C4BCD
:10235000C3ED007A444B1B78032B02D1B2EE047A12
:1023600001E09FED427A464BD3ED007A77EE277A73
:10237000434BC3ED007A424B1B681846FEF7ECF85E
:1023800031A3D3E90023FEF7CFFB0346002B02D095
:10239000384B03221A703A4BD3ED007AB1EE047A2F
:1023A000F4EEC77AF1EE10FA06DD364B1B78022BFD
:1023B00002D1334B344A1A60314BD3ED007AB3EE7D
:1023C0000E7AF4EEC77AF1EE10FA0ADD2D4B1B7887
:1023D000032B03D02B4B1B78042B02D1284B2B4A09
:1023E0001A60274BD3ED007AB2EE0E7AF4EEC77A7C
:1023F000F1EE10FA06DD234B1B78012B02D1204BA6
:10240000234A1A601D4B1868002332221C4904F02D
:1024100021F9204B1B78002B00F022831E4B1B68F8
:102420001846FEF799F802460B460F49097801292C
:1024300034D103A1D1E9000134E000BFAFF3008043
:102440009A9999999999B93FCDCCCCCCCCCC2340D1
:102450009A99999999F9584033333333333F8F40E0
:10246000E6090020A40300209D03002000000000D6
:102470000000C8429E0300209AF97944F809002020
:10248000A0030020AC0300200000A0400000F041A9
:1024900000007041E7090020A80300204FF0000071
:1024A0004FF00001FDF7FAFE02460B4610461946B2
:1024B000FEF7A2FB0346B04A1360B04B1B78022B19
:1024C00002D1B7EE007A01E09FEDAD7AAA4BD3EDD1
:1024D000007A77EE277AA84BC3ED007AA74B1B78DA
:1024E000032B02D1B2EE047A01E09FEDA57AA24B54
:1024F000D3ED007A77EE277A9F4BC3ED007A9E4B9F
:102500001B681846FEF728F893A3D3E90023FEF7CB
:102510000BFB0346002B02D09A4B03221A70964BFA
:102520001B681846FEF718F88DA3D3E90023FEF7C1
:10253000FBFA0346002B02D08F4B934A1A60934B51
:102540001868002332228C4904F084F888E2904B0A
:102550001B78002B00F0D480FB7F002B72D18D4BB9
:102560001B681846FDF7F8FF844B1B78012B03D13D
:102570007DA3D3E9002303E04FF000024FF00003F6
:10258000FDF78AFE02460B4610461946FEF734FB5D
:102590000346804A13607F4B93ED007A774B1B789C
:1025A000022B02D1F7EE007A01E0DFED757A77EECB
:1025B000677A784BC3ED007A764B93ED007A6F4BD8
:1025C0001B78032B02D1F2EE047A01E0DFED6C7A86
:1025D00077EE677A6F4BC3ED007A6E4B93ED007A1E
:1025E000664B1B78042B02D1DFED6B7A01E0DFED47
:1025F000647A77EE677A674BC3ED007A654BD3ED6B
:10260000007AB2EE047AF4EEC77AF1EE10FA02D54F
:102610005C4B02221A705F4B1B681846FDF79CFF4B
:1026200053A3D3E90023FEF76BFA0346002B02D035
:10263000584B5A4A1A605A4B18680023322255499F
:1026400004F008F8FB7F012B5AD1564B1B68184643
:10265000FDF782FF494B1B78012B03D142A3D3E93D
:10266000002303E04FF000024FF00003FDF714FEDB
:1026700002460B4610461946FEF7BEFA0346494A83
:102680001360484B93ED007A3C4B1B78022B02D130
:10269000F7EE007A01E0DFED3A7A77EE677A414BA8
:1026A000C3ED007A3F4B93ED007A344B1B78032B3C
:1026B00002D1F2EE047A01E0DFED317A77EE677A4B
:1026C000384BC3ED007A374BD3ED007AB2EE047A83
:1026D000F4EEC77AF1EE10FA02D52A4B02221A70F4
:1026E000304B1B681846FDF737FF21A3D3E90023C1
:1026F000FEF706FA0346002B02D02A4B274A1A603F
:10270000294B1B78002B00F0AD811B4B1B68184632
:10271000FDF722FF194B1B78012B03D112A3D3E93C
:10272000002303E04FF000024FF00003FDF7B4FD7B
:1027300002460B4610461946FEF75EFA03460E4A5D
:1027400013600D4B93ED007A0C4B1B78022B2FD1AD
:10275000F7EE007A2EE000BFCDCCCCCCCCCC234021
:102760009A99999999F958409A9999999999B93F4B
:102770007B14AE47E17A843FA80300209D0300202C
:10278000000000009E030020CDCCC742FC090020C1
:10279000E6090020A40300200000C842CDCCCC3DB7
:1027A000F8090020A0030020E70900200000000035
:1027B0005FED027A77EE677AB14BC3ED007AB04BEA
:1027C00093ED007AAF4B1B78032B02D1F2EE047A23
:1027D00001E0DFEDAD7A77EE677AA94BC3ED007AC1
:1027E000A74BD3ED007AB2EE047AF4EEC77AF1EE9D
:1027F00010FA02D5A54B02221A70A14B1B6818468D
:10280000FDF7AAFE9CA3D3E90023FEF779F903465E
:10281000002B02D09A4B9E4A1A609E4B18680023E8
:102820003222974903F016FF1CE19B4B1B78002BCB
:1028300014D0994B00221A70984B01221A7007F19C
:102840000C039749184606F043FA964B186807F1AF
:102850000C010023322203F0FDFE0BE18F4B1B78AD
:10286000002B57D08D4B00221A70FB7F002B22D1FA
:102870008D4B00221A70854B02221A708B4B01225D
:102880001A7007F10C038A49184606F021FA854BA5
:10289000186807F10C010023322203F0DBFE4FF42D
:1028A000FA6004F0F5FB834B18680023322282495A
:1028B00003F0D0FEDEE0FB7F012B2BD17A4B01220F
:1028C0001A7007F10C037D49184606F001FA754BA2
:1028D000186807F10C010023322203F0BBFE4FF40D
:1028E000FA6004F0D5FB764B1B785A1E1346DB00CA
:1028F0001344744A1A4407F10C031146184606F0B3
:10290000E7F9684B186807F10C010023322203F045
:10291000A1FEAFE0644B1B78002B1FD0624B00225E
:102920001A70624B01221A7007F10C0360491846B5
:1029300006F0CEF95B4B186807F10C0100230A2260
:1029400003F088FE4FF4FA6004F0A2FB594B1868BC
:1029500000230A225C4903F07DFE8BE0534B1B7879
:10296000002B3ED0FB7F002B23D1484B03221A7053
:1029700007F10C03554A5649184606F0A9F9494B88
:10298000186807F10C010023322203F063FE4FF4B4
:10299000FA6004F07DFB3F4B18680023322238496F
:1029A00003F058FE4B4B01221A70404B00221A7064
:1029B00060E0484B00221A7007F10C03464A444974
:1029C000184606F085F9374B186807F10C0100230B
:1029D000322203F03FFE414B01221A70334B00229A
:1029E0001A703C4B1B78002B3ED03A4B00221A70D9
:1029F00007F10C033A4A3649184606F069F9294BA3
:102A0000186807F10C010023322203F023FE354B36
:102A100001221A7028E0214B00221A70224B00225A
:102A20001A702C4B00221A70204B00221A701A4B7D
:102A300001221A700023FB7707F10C032A4A24496C
:102A4000184606F045F9174B186807F10C010023EA
:102A50000A2203F0FFFD08E000BF06E000BF04E02B
:102A600000BF02E000BF00E000BF4FF400511F486C
:102A700001F0CBFBFFF72CBA7B14AE47E17A843F21
:102A8000A80300209D030020000000009E030020FA
:102A9000CDCCCC3DFC0900209C030020E4090020A3
:102AA000D8B20008F4090020E5090020E60900205A
:102AB000E8B20008F8090020A4030020F4B20008DE
:102AC000AC030020B0030020A003002000B30008E6
:102AD000E4B20008E70900200CB30008E809002070
:102AE00014B30008E909002014B2000800080240ED
:102AF00080B588B000AF786000237B6107F11803D0
:102B000000221A601A714FF000033B614FF000037E
:102B1000FB603B4B1B6807F114010A22184603F0C7
:102B200033FF0346012B06D1FEF788FD07F114039E
:102B30001846FEF7C1FC334B1B78002B2BD0324BD1
:102B40001B6807F10C010A22184603F01DFF03461B
:102B5000012B50D1FEF772FDD7ED037AB0EE670A74
:102B6000FEF734FD0346FB77284B1B78FA7FD31A18
:102B7000DBB2013BDBB21846FEF750FD4FF4967016
:102B800004F086FAFEF75AFDD7ED037AB0EE670A35
:102B9000FEF71CFDBDE71E4B1B78002BB9D01D4B6B
:102BA0001B6807F110010A22184603F0EDFE0346E8
:102BB000012B22D1FEF742FDD7ED047AB0EE670A71
:102BC000FEF714FD0346FB77104B1B78FA7FD31AF0
:102BD000DBB2013BDBB21846FEF720FD4FF49670E6
:102BE00004F056FAFEF72AFDD7ED047AB0EE670A34
:102BF000FEF7FCFC8DE700BF8BE700BF89E700BF55
:102C0000F4090020E7090020FC0900209D030020B2
:102C1000E6090020F809002080B582B000AF786096
:102C2000164B1B78DBB2002B13D0154B1B7883F0AF
:102C30000103DBB2002B0CD0124B1B78124AD2EDF1
:102C4000007AB0EE670A1846FEF7BEF90C4B012277
:102C50001A700A4B1B78DBB283F00103DBB2002B46
:102C600008D0074B1B78002B04D0FEF797F9044BD4
:102C700000221A70642004F00BFAD1E7E809002062
:102C8000EC090020AC030020A003002080B582B036
:102C900000AF7860174B1B78DBB2002B15D0164BBA
:102CA0001B7883F00103DBB2002B0ED0134BD3ED66
:102CB000007A134B93ED007AF0EE470AB0EE670A04
:102CC000FEF7FEFC0C4B01221A700A4B1B78DBB29C
:102CD00083F00103DBB2002B08D0074B1B78002BDD
:102CE00004D0FEF72DFD044B00221A70642004F07E
:102CF000CFF9CFE7E9090020ED090020A403002067
:102D0000A803002080B584B000AF78607B681B68A2
:102D1000B3F1804F01D100F01FFC7B681B685C4A57
:102D2000934240F0B0805B4802F05AFA0023FB6007
:102D3000594B1B889BB21946584801F035FA034697
:102D4000002B5CD1544B1B889BB27B81524B1B8860
:102D50009BB2B3F5806F39D0B3F5806F46DC102B92
:102D600026DC022B42DB023B0E2B3FD801A252F89D
:102D700023F000BFB92D0008ED2D0008BF2D00087D
:102D8000ED2D0008ED2D0008ED2D0008D52D0008D3
:102D9000ED2D0008ED2D0008ED2D0008ED2D0008AB
:102DA000ED2D0008ED2D0008ED2D0008DB2D0008AD
:102DB000B3F5007F06D019E002237B8116E00423DF
:102DC0007B8113E04FF400737B810FE04FF480634D
:102DD0007B810BE008237B8108E010237B81304B53
:102DE00000221A702F4B00221A7000BF2E4B186859
:102DF00007F10C0207F10A01002303F029FD2B4B18
:102E00005B692A4A43F002035361284B5B69274AF6
:102E100043F004035361254B5B69244A43F00803E4
:102E20005361224B5B69214A43F0100353611F4BEE
:102E30005B691E4A43F4007353611C4B5B691B4A78
:102E400043F480635361282000F09EFC172000F0BB
:102E50009BFC072000F098FC082000F095FC0A205D
:102E600000F092FC092000F08FFCFB68012B0AD1D6
:102E7000FB68002B07D00E4B4FF080521A60BFF357
:102E80004F8FBFF36F8F00BF1037BD4680BD00BFAF
:102E90000040014024090020EA090020000002400F
:102EA000E8090020E9090020F0090020003C014069
:102EB00004ED00E080B400AF72B600BFFEE7000092
:102EC00080B582B000AF00237B60124B5B6C114A6F
:102ED00043F4804353640F4B5B6C03F480437B608B
:102EE0007B6800233B600B4B1B6C0A4A43F080530A
:102EF0001364084B1B6C03F080533B603B6800225B
:102F00000F216FF0010000F023FC00BF0837BD4621
:102F100080BD00BF0038024080B58AB000AF786045
:102F200007F1140300221A605A609A60DA601A618D
:102F30007B681B68194A93422BD100233B61184BD5
:102F40005B6C174A43F480535364154B5B6C03F47A
:102F500080533B613B690023FB60114B1B6B104AA4
:102F600043F0010313630E4B1B6B03F00103FB6083
:102F7000FB68E0237B610223BB610023FB61032329
:102F80003B6205237B6207F114031946054800F0F4
:102F900087FF00BF2837BD4680BD00BF003001401D
:102FA000003802400000024080B586B000AF786073
:102FB0007B681B683E4A934247D100237B613D4BAF
:102FC0005B6C3C4A43F0010353643A4B5B6C03F087
:102FD00001037B617B69384B384A1A60364B4FF0EE
:102FE00040625A60344B40229A60334B0022DA60D0
:102FF000314B4FF480621A612F4B4FF400625A61DB
:103000002D4B4FF400529A612B4B4FF48072DA61D2
:10301000294B00221A62284B00225A62264800F0EF
:10302000CFFB0346002B01D0FFF744FF7B68224A09
:103030001A62214A7B68936300220521182000F060
:1030400087FB182000F0A0FB2EE07B681B681C4A61
:1030500093420ED100233B61164B1B6C154A43F083
:1030600008031364134B1B6C03F008033B613B69BB
:103070001AE07B681B68134A934215D10023FB605A
:103080000C4B5B6C0B4A43F480335364094B5B6C11
:1030900003F48033FB60FB6800220521182000F058
:1030A00057FB182000F070FB00BF1837BD4680BDED
:1030B00000000140003802406C0900208864024092
:1030C000000C00400040014080B588B000AF78603F
:1030D00007F10C0300221A605A609A60DA601A61E4
:1030E0007B681B68124A93421DD10023BB60114BC1
:1030F0001B6B104A43F0010313630E4B1B6B03F071
:103100000103BB60BB680123FB6002233B6100231A
:103110007B610023BB610223FB6107F10C031946AD
:10312000054800F0BDFE00BF2037BD4680BD00BF92
:10313000000C0040003802400000024080B58EB014
:1031400000AF78600023FB620023BB620023FB60BA
:10315000344B1B6C334A43F001031364314B1B6C3B
:1031600003F00103FB60FB6807F1100207F1140391
:103170001146184601F0C0FC3B6AFB62FB6A002B5B
:1031800003D101F0A5FC786304E001F0A1FC034643
:103190005B007B637B6B244AA2FB03239B0C013BFC
:1031A000BB62224B4FF080421A60204B40F2E73264
:1031B000DA601E4ABB6A53601C4B00221A611B4B2B
:1031C00000229A60194B00229A61184801F056FFBC
:1031D000034687F8333097F83330002B1BD1134860
:1031E00001F09CFF034687F8333097F83330002B0B
:1031F00011D11C2000F0C8FA7B680F2B08D80022E0
:1032000079681C2000F0A4FA094A7B68136002E088
:10321000012387F8333097F8333018463837BD46E6
:1032200080BD00BF0038024083DE1B43000A00203F
:10323000D803002080B400AFFEE780B483B000AFB5
:103240001EF0040F0CBFEFF30883EFF309837B60DC
:10325000FEE780B400AFFEE780B400AFFEE780B4C5
:1032600000AFFEE780B400AF00BFBD465DF8047B51
:10327000704780B500AF022000F0E2FF00BF80BDC4
:1032800080B500AF042000F0DBFF00BF80BD80B53B
:1032900000AF082000F0D4FF00BF80BD80B500AFB4
:1032A000102000F0CDFF00BF80BD80B500AF4FF40F
:1032B000007000F0C5FF00BF80BD000080B500AF0A
:1032C000034802F029F9034802F026F900BF80BD47
:1032D000940800202409002080B500AF024802F0C5
:1032E0001BF900BF80BD00BF000A002080B500AF01
:1032F0004FF4806000F0A4FF00BF80BD80B500AF38
:10330000024800F063FB00BF80BD00BF6C090020D5
:1033100080B400AF01231846BD465DF8047B7047BA
:1033200080B582B000AF7860396005F027F80346B9
:1033300016221A604FF0FF3318460837BD4680BD8D
:1033400080B582B000AF78604FF0FF317868FFF74A
:10335000E7FFFEE780B586B000AFF860B9607A603D
:1033600000237B610AE0AFF300800146BB685A1C72
:10337000BA60CAB21A707B6901337B617A697B6873
:103380009A42F0DB7B6818461837BD4680BD80B591
:1033900086B000AFF860B9607A6000237B6109E015
:1033A000BB685A1CBA601B781846AFF300807B6973
:1033B00001337B617A697B689A42F1DB7B6818464E
:1033C0001837BD4680BD80B483B000AF78604FF041
:1033D000FF3318460C37BD465DF8047B704780B458
:1033E00083B000AF786039603B684FF400525A6098
:1033F000002318460C37BD465DF8047B704780B447
:1034000083B000AF7860012318460C37BD465DF8E5
:10341000047B704780B485B000AFF860B9607A6013
:10342000002318461437BD465DF8047B7047000042
:1034300080B586B000AF7860144A154BD31A7B6113
:103440007B693B61134B1B68002B02D1114B124A65
:103450001A60104B1A687B6813443A699A4207D283
:1034600004F08CFF03460C221A604FF0FF3309E092
:10347000084B1B68FB60074B1A687B681344054ABE
:103480001360FB6818461837BD4680BD0000012058
:1034900000040000480A0020E880002080B400AF4B
:1034A000064BD3F88830054A43F47003C2F88830DD
:1034B00000BFBD465DF8047B704700BF00ED00E033
:1034C000DFF834D00D480E490E4A002302E0D458EC
:1034D000C4500433C4188C42F9D30B4A0B4C00235C
:1034E00001E013600432A242FBD3FFF7D7FF04F0E0
:1034F0004BFFFEF775F97047000001200000002027
:10350000B40500202CB70008B4050020E48000209A
:10351000FEE7000080B500AF0E4B1B680D4A43F478
:10352000007313600B4B1B680A4A43F480631360FB
:10353000084B1B68074A43F480731360032000F0B4
:10354000FCF80F20FFF7FAFDFFF7BAFC002318463E
:1035500080BD00BF003C024080B400AF064B1B782A
:103560001A46064B1B681344044A136000BFBD464D
:103570005DF8047B704700BFDC0300204C0A00208C
:1035800080B400AF034B1B681846BD465DF8047B52
:10359000704700BF4C0A002080B485B000AF78604F
:1035A0007B6803F00703FB600C4BDB68BB60BA6809
:1035B0004FF6FF031340BB60FB681A02BB6813435E
:1035C00043F0BF6343F40033BB60044ABB68D3607D
:1035D00000BF1437BD465DF8047B704700ED00E086
:1035E00080B400AF044BDB681B0A03F007031846E6
:1035F000BD465DF8047B704700ED00E080B483B009
:1036000000AF0346FB7197F90730002B0BDBFB790A
:1036100003F01F02074997F907305B09012000FA00
:1036200002F241F8232000BF0C37BD465DF8047B51
:10363000704700BF00E100E080B483B000AF0346F4
:10364000FB7197F90730002B12DBFB7903F01F02A7
:103650000A4997F907305B09012000FA02F220338A
:1036600041F82320BFF34F8F00BFBFF36F8F00BF20
:1036700000BF0C37BD465DF8047B704700E100E0F9
:1036800080B483B000AF03463960FB7197F907300F
:10369000002B0ADB3B68DAB20C4997F907301201BC
:1036A000D2B20B4483F800230AE03B68DAB208493F
:1036B000FB7903F00F03043B1201D2B20B441A76DC
:1036C00000BF0C37BD465DF8047B704700E100E0A9
:1036D00000ED00E080B489B000AFF860B9607A60B6
:1036E000FB6803F00703FB61FB69C3F10703042BCD
:1036F00028BF0423BB61FB690433062B02D9FB6995
:10370000033B00E000237B614FF0FF32BB6902FA0C
:1037100003F3DA43BB681A407B699A404FF0FF31EC
:103720007B6901FA03F3D9437B680B4013431846C6
:103730002437BD465DF8047B704780B582B000AF8A
:1037400078607868FFF728FF00BF0837BD4680BD66
:1037500080B586B000AF0346B9607A60FB73002382
:103760007B61FFF73DFF78617A68B9687869FFF798
:10377000B1FF024697F90F3011461846FFF780FF58
:1037800000BF1837BD4680BD80B582B000AF03468C
:10379000FB7197F907301846FFF730FF00BF083775
:1037A000BD4680BD80B582B000AF0346FB7197F97E
:1037B00007301846FFF740FF00BF0837BD4680BD01
:1037C00080B586B000AF786000237B61FFF7D8FE3C
:1037D00038617B68002B01D1012399E07B680222CC
:1037E00083F835207B68002283F834207B681B68CF
:1037F0001A687B681B6822F001021A600FE0FFF76D
:10380000BFFE02463B69D31A052B08D97B682022EC
:103810005A657B68032283F83520032378E07B68B0
:103820001B681B6803F00103002BE8D17B681B6851
:103830001B687B617A69384B13407B617B685A68EF
:103840007B689B681A437B68DB681A437B681B694B
:103850001A437B685B691A437B689B691A437B68E0
:10386000DB691A437B681B6A13437A6913437B61E4
:103870007B685B6A042B07D17B68DA6A7B681B6B09
:1038800013437A6913437B617B681B687A691A600A
:103890007B681B685B697B617B6923F007037B6145
:1038A0007B685B6A7A6913437B617B685B6A042B84
:1038B00017D17B689B6A7A6913437B617B68DB6AFB
:1038C000002B0ED0786800F06FFA0346002B08D06A
:1038D0007B6840225A657B68012283F835200123EA
:1038E00016E07B681B687A695A61786800F026FAEE
:1038F0000346FB607B68DB6D3F229A40FB689A6061
:103900007B6800225A657B68012283F835200023FA
:1039100018461837BD4680BD3F8010F080B586B090
:1039200000AFF860B9607A603B600023FB75FB680C
:103930009B6D3B61FB6893F83430012B01D102236E
:1039400040E0FB68012283F83420FB6893F83530AF
:10395000DBB2012B2FD1FB68022283F83520FB68F4
:1039600000225A653B687A68B968F86800F0B8F9CF
:10397000FB68DB6D3F229A403B699A60FB681B68DD
:103980001A68FB681B6842F016021A60FB681B6C21
:10399000002B07D0FB681B681A68FB681B6842F0A5
:1039A00008021A60FB681B681A68FB681B6842F013
:1039B00001021A6005E0FB68002283F8342002232C
:1039C000FB75FB7D18461837BD4680BD80B586B0B7
:1039D00000AF78600023BB608E4B1B688E4AA2FB51
:1039E00003239B0A7B617B689B6D3B613B691B6882
:1039F000FB607B68DB6D08229A40FB681340002B5C
:103A00001AD07B681B681B6803F00403002B13D0DB
:103A10007B681B681A687B681B6822F004021A60C6
:103A20007B68DB6D08229A403B699A607B685B6D1E
:103A300043F001027B685A657B68DB6D01229A4086
:103A4000FB681340002B12D07B681B685B6903F096
:103A50008003002B0BD07B68DB6D01229A403B6911
:103A60009A607B685B6D43F002027B685A657B68F5
:103A7000DB6D04229A40FB681340002B12D07B6858
:103A80001B681B6803F00203002B0BD07B68DB6D07
:103A900004229A403B699A607B685B6D43F00402A4
:103AA0007B685A657B68DB6D10229A40FB68134087
:103AB000002B43D07B681B681B6803F00803002BB6
:103AC0003CD07B68DB6D10229A403B699A607B6832
:103AD0001B681B6803F48023002B18D07B681B68CD
:103AE0001B6803F40023002B08D17B681B6C002BA0
:103AF00024D07B681B6C786898471FE07B689B6CC0
:103B0000002B1BD07B689B6C7868984716E07B681D
:103B10001B681B6803F48073002B07D17B681B684C
:103B20001A687B681B6822F008021A607B681B6CAD
:103B3000002B03D07B681B6C786898477B68DB6D33
:103B400020229A40FB681340002B00F08F807B6896
:103B50001B681B6803F01003002B00F087807B6854
:103B6000DB6D20229A403B699A607B6893F8353080
:103B7000DBB2052B36D17B681B681A687B681B6833
:103B800022F016021A607B681B685A697B681B6802
:103B900022F080025A617B681B6C002B03D17B688A
:103BA0009B6C002B07D07B681B681A687B681B68BE
:103BB00022F008021A607B68DB6D3F229A403B6965
:103BC0009A607B68012283F835207B68002283F8A5
:103BD00034207B681B6D002B7ED07B681B6D786862
:103BE000984779E07B681B681B6803F48023002BEF
:103BF0001DD07B681B681B6803F40023002B0DD1CC
:103C00007B685B6C002B31D07B685B6C7868984775
:103C10002CE000BFD4030020B5814E1B7B68DB6B1A
:103C2000002B23D07B68DB6B786898471EE07B68AD
:103C30001B681B6803F48073002B0FD17B681B6823
:103C40001A687B681B6822F010021A607B680122E8
:103C500083F835207B68002283F834207B68DB6B97
:103C6000002B03D07B68DB6B786898477B685B6DC3
:103C7000002B32D07B685B6D03F00103002B22D058
:103C80007B68052283F835207B681B681A687B688F
:103C90001B6822F001021A60BB680133BB607A69BD
:103CA0009A4207D37B681B681B6803F00103002B53
:103CB000F2D100E000BF7B68012283F835207B68E9
:103CC000002283F834207B68DB6C002B05D07B68F6
:103CD000DB6C7868984700E000BF1837BD4680BDB0
:103CE00080B485B000AFF860B9607A603B60FB6873
:103CF0001B681A68FB681B6822F480221A60FB6844
:103D00001B683A685A60FB689B68402B08D1FB68C7
:103D10001B687A689A60FB681B68BA68DA6007E01B
:103D2000FB681B68BA689A60FB681B687A68DA608F
:103D300000BF1437BD465DF8047B704780B485B082
:103D400000AF78607B681B68DBB2103B144AA2FBB3
:103D500003231B09FB60134AFB6813441B781A46B4
:103D60007B68DA65FB68032B09D97B681B6823F441
:103D70007F7323F003031A1D7B689A6507E07B6855
:103D80001B6823F47F7323F003037A6893657B68D1
:103D90009B6D18461437BD465DF8047B704700BF25
:103DA000ABAAAAAA3CB3000880B485B000AF786083
:103DB0000023FB737B689B6ABB607B689B69002B5D
:103DC0001FD1BB68032B56D801A252F823F000BFC5
:103DD000E13D0008F33D0008E13D0008773E0008A2
:103DE0007B68DB6A03F08073002B46D00123FB73F2
:103DF00043E07B68DB6AB3F1C07F40D10123FB73F2
:103E00003DE07B689B69B3F5005F21D1BB68032B64
:103E100037D801A252F823F0293E00082F3E0008AF
:103E2000293E0008413E00080123FB7330E07B6817
:103E3000DB6A03F08073002B25D00123FB7322E0A3
:103E40007B68DB6AB3F1C07F1FD10123FB731CE0E9
:103E5000BB68022B03D9BB68032B03D018E00123F6
:103E6000FB7315E07B68DB6A03F08073002B0ED0D8
:103E70000123FB730BE000BF0AE000BF08E000BFB6
:103E800006E000BF04E000BF02E000BF00E000BFAA
:103E9000FB7B18461437BD465DF8047B704700BFB6
:103EA00080B489B000AF7860396000237B61002363
:103EB0003B610023BB610023FB6159E10122FB69E7
:103EC00002FA03F37B613B681B687A6913403B612C
:103ED0003A697B699A4240F048813B685B6803F02D
:103EE0000303012B05D03B685B6803F00303022B3F
:103EF00030D17B689B68BB61FB695B00032202FADF
:103F000003F3DB43BA691340BB613B68DA68FB69C2
:103F10005B0002FA03F3BA691343BB617B68BA69B9
:103F20009A607B685B68BB610122FB6902FA03F35C
:103F3000DB43BA691340BB613B685B681B0903F054
:103F40000102FB6902FA03F3BA691343BB617B68A0
:103F5000BA695A603B685B6803F00303032B17D010
:103F60007B68DB68BB61FB695B00032202FA03F339
:103F7000DB43BA691340BB613B689A68FB695B002D
:103F800002FA03F3BA691343BB617B68BA69DA606A
:103F90003B685B6803F00303022B23D1FB69DA085B
:103FA0007B68083253F82230BB61FB6903F00703DA
:103FB0009B000F2202FA03F3DB43BA691340BB6193
:103FC0003B681A69FB6903F007039B0002FA03F3DD
:103FD000BA691343BB61FB69DA087B680832B969C7
:103FE00043F822107B681B68BB61FB695B000322FE
:103FF00002FA03F3DB43BA691340BB613B685B68B9
:1040000003F00302FB695B0002FA03F3BA6913438E
:10401000BB617B68BA691A603B685B6803F4403334
:10402000002B00F0A2800023FB60574B5B6C564ACC
:1040300043F480435364544B5B6C03F48043FB6054
:10404000FB68524AFB699B08023352F82330BB617C
:10405000FB6903F003039B000F2202FA03F3DB4327
:10406000BA691340BB617B68494A934219D07B68A7
:10407000484A934213D07B68474A93420DD07B68ED
:10408000464A934207D07B68454A934201D10423B4
:1040900008E0072306E0032304E0022302E00123F3
:1040A00000E00023FA6902F0030292009340BA692B
:1040B0001343BB613549FB699B080233BA6941F878
:1040C0002320384B9B68BB613B69DB43BA691340D3
:1040D000BB613B685B6803F48013002B03D0BA69B3
:1040E0003B691343BB612F4ABB6993602D4BDB686F
:1040F000BB613B69DB43BA691340BB613B685B68EA
:1041000003F40013002B03D0BA693B691343BB616E
:10411000244ABB69D360234B5B68BB613B69DB43CB
:10412000BA691340BB613B685B6803F40033002B42
:1041300003D0BA693B691343BB611A4ABB69536038
:10414000184B1B68BB613B69DB43BA691340BB6119
:104150003B685B6803F48033002B03D0BA693B698A
:104160001343BB610F4ABB691360FB690133FB61F9
:10417000FB690F2B7FF6A2AE00BF00BF2437BD4600
:104180005DF8047B704700BF0038024000380140F2
:10419000000002400004024000080240000C0240FF
:1041A00000100240003C014080B485B000AF786050
:1041B0000B467B807B681A697B881340002B02D0FA
:1041C0000123FB7301E00023FB73FB7B18461437CC
:1041D000BD465DF8047B704780B483B000AF786063
:1041E0000B467B8013467B707B78002B03D07A884C
:1041F0007B689A6103E07B881A047B689A6100BF40
:104200000C37BD465DF8047B704780B485B000AFC5
:1042100078600B467B807B685B69FB607A88FB6813
:1042200013401A04FB68D9437B880B401A437B6810
:104230009A6100BF1437BD465DF8047B70470000EB
:1042400080B582B000AF0346FB80084B5A69FB88FB
:104250001340002B06D0054AFB885361FB881846A3
:10426000FDF798FA00BF0837BD4680BD003C01400D
:1042700080B586B000AF78607B68002B01D1012348
:1042800067E27B681B6803F00103002B75D0884B45
:104290009B6803F00C03042B0CD0854B9B6803F048
:1042A0000C03082B12D1824B5B6803F48003B3F537
:1042B000800F0BD17E4B1B6803F40033002B5BD0C7
:1042C0007B685B68002B57D1012342E27B685B6807
:1042D000B3F5803F06D1764B1B68754A43F48033B3
:1042E00013601DE07B685B68B3F5A02F0CD1704BA9
:1042F0001B686F4A43F4802313606D4B1B686C4A44
:1043000043F4803313600BE0694B1B68684A23F465
:1043100080331360664B1B68654A23F48023136067
:104320007B685B68002B13D0FFF72AF9386108E03F
:10433000FFF726F902463B69D31A642B01D9032300
:1043400007E25B4B1B6803F40033002BF0D014E052
:10435000FFF716F9386108E0FFF712F902463B69EA
:10436000D31A642B01D90323F3E1514B1B6803F4E7
:104370000033002BF0D100E000BF7B681B6803F026
:104380000203002B63D04A4B9B6803F00C03002B05
:104390000BD0474B9B6803F00C03082B1CD1444BFC
:1043A0005B6803F48003002B16D1414B1B6803F0BC
:1043B0000203002B05D07B68DB68012B01D00123B1
:1043C000C7E13B4B1B6823F0F8027B681B69DB00ED
:1043D000374913430B603AE07B68DB68002B20D041
:1043E000344B01221A60FFF7CBF8386108E0FFF781
:1043F000C7F802463B69D31A022B01D90323A8E16F
:104400002B4B1B6803F00203002BF0D0284B1B68DA
:1044100023F0F8027B681B69DB00254913430B601E
:1044200015E0244B00221A60FFF7AAF8386108E073
:10443000FFF7A6F802463B69D31A022B01D90323E2
:1044400087E11B4B1B6803F00203002BF0D17B6854
:104450001B6803F00803002B36D07B685B69002BD8
:1044600016D0154B01221A60FFF78AF8386108E070
:10447000FFF786F802463B69D31A022B01D90323C2
:1044800067E10B4B5B6F03F00203002BF0D01BE0E6
:10449000094B00221A60FFF773F838610EE0FFF74E
:1044A0006FF802463B69D31A022B07D9032350E168
:1044B0000038024000004742800E4742884B5B6F45
:1044C00003F00203002BEAD17B681B6803F00403AE
:1044D000002B00F097800023FB75814B1B6C03F0D1
:1044E0008053002B0FD10023BB607D4B1B6C7C4A9B
:1044F00043F0805313647A4B1B6C03F08053BB6012
:10450000BB680123FB75774B1B6803F48073002B9A
:1045100018D1744B1B68734A43F480731360FFF720
:104520002FF8386108E0FFF72BF802463B69D31AF1
:10453000022B01D903230CE16A4B1B6803F480733F
:10454000002BF0D07B689B68012B06D1644B1B6F5E
:10455000634A43F0010313671CE07B689B68052BEB
:104560000CD15F4B1B6F5E4A43F0040313675C4B37
:104570001B6F5B4A43F0010313670BE0584B1B6F43
:10458000574A23F001031367554B1B6F544A23F01E
:10459000040313677B689B68002B15D0FEF7F0FFC0
:1045A00038610AE0FEF7ECFF02463B69D31A41F29C
:1045B0008832934201D90323CBE0494B1B6F03F0B0
:1045C0000203002BEED014E0FEF7DAFF38610AE0B8
:1045D000FEF7D6FF02463B69D31A41F28832934276
:1045E00001D90323B5E03E4B1B6F03F00203002B00
:1045F000EED1FB7D012B05D1394B1B6C384A23F0E2
:10460000805313647B689B69002B00F0A180344BBE
:104610009B6803F00C03082B5CD07B689B69022B22
:1046200041D1314B00221A60FEF7AAFF386108E041
:10463000FEF7A6FF02463B69D31A022B01D90323DA
:1046400087E0274B1B6803F00073002BF0D17B68D9
:10465000DA697B681B6A1A437B685B6A9B011A43B1
:104660007B689B6A5B08013B1B041A437B68DB6A1F
:104670001B061B4913434B601B4B01221A60FEF7BC
:104680007FFF386108E0FEF77BFF02463B69D31AE3
:10469000022B01D903235CE0114B1B6803F000736C
:1046A000002BF0D054E0104B00221A60FEF768FF98
:1046B000386108E0FEF764FF02463B69D31A022B1B
:1046C00001D9032345E0064B1B6803F00073002B60
:1046D000F0D13DE07B689B69012B07D1012338E0D5
:1046E0000038024000700040600047421B4B5B688E
:1046F000FB607B689B69012B28D0FB6803F4800278
:104700007B68DB699A4221D1FB6803F03F027B683A
:104710001B6A9A421AD1FA6847F6C07313407A6846
:10472000526A9201934211D1FB6803F440327B68D4
:104730009B6A5B08013B1B049A4207D1FB6803F0AC
:1047400070627B68DB6A1B069A4201D0012300E09D
:10475000002318461837BD4680BD00BF0038024010
:1047600080B584B000AF786039607B68002B01D1E0
:104770000123CCE0684B1B6803F007033A689A42B8
:104780000CD9654B3A68D2B21A70634B1B6803F0C0
:1047900007033A689A4201D00123B8E07B681B689E
:1047A00003F00203002B20D07B681B6803F0040396
:1047B000002B05D0594B9B68584A43F4E053936053
:1047C0007B681B6803F00803002B05D0534B9B68E4
:1047D000524A43F460439360504B9B6823F0F002CD
:1047E0007B689B684D4913438B607B681B6803F0B3
:1047F0000103002B44D07B685B68012B07D1474B3A
:104800001B6803F40033002B19D101237FE07B6880
:104810005B68022B03D07B685B68032B07D13F4B9F
:104820001B6803F00073002B09D101236FE03B4BA1
:104830001B6803F00203002B01D1012367E0374B13
:104840009B6823F003027B685B68344913438B60E9
:10485000FEF796FEF8600AE0FEF792FE0246FB685D
:10486000D31A41F28832934201D903234FE02B4BF4
:104870009B6803F00C027B685B689B009A42EBD15B
:10488000254B1B6803F007033A689A420CD2224B6F
:104890003A68D2B21A70204B1B6803F007033A68DB
:1048A0009A4201D0012332E07B681B6803F00403C5
:1048B000002B08D0194B9B6823F4E0527B68DB681F
:1048C000164913438B607B681B6803F00803002BB9
:1048D00009D0124B9B6823F460427B681B69DB00A4
:1048E0000E4913438B6000F021F802460B4B9B6886
:1048F0001B0903F00F030A49CB5C22FA03F3094AB0
:104900001360094B1B681846FEF718FC0023184675
:104910001037BD4680BD00BF003C02400038024059
:1049200024B30008D4030020D80300202DE9B04FA1
:1049300090B000AF00237B630023FB6300233B6345
:104940000023BB63594B9B6803F00C03082B0DD06D
:10495000082B00F2A180002B02D0042B03D09BE097
:10496000534BBB639BE0534BBB6398E04F4B5B687F
:1049700003F03F037B634D4B5B6803F48003002B24
:1049800028D04A4B5B689B0900223B627A623B6AF3
:10499000C3F308000021474B03FB01F2002300FB97
:1049A00003F31344434AA0FB0212FA620A46BA62B6
:1049B000FA6A1344FB627B6B0022BB61FA61D7E9A0
:1049C0000623D7E90A01FCF767F902460B461346AE
:1049D000FB6353E0354B5B689B0900223B617A61C6
:1049E0003B69C3F3080A4FF0000B52465B464FF099
:1049F00000004FF00001590141EAD2615001024626
:104A00000B46B2EB0A0863EB0B094FF000024FF0C4
:104A100000034FEA891343EA98634FEA8812B2EB26
:104A2000080463EB09054FF000024FF00003EB00B0
:104A300043EA5473E20014461D4614EB0A033B603C
:104A400045EB0B037B604FF000024FF00003D7E90A
:104A5000004529468B02214643EA915321468A02AA
:104A6000104619467B6B0022BB60FA60D7E902232F
:104A7000FCF712F902460B461346FB630B4B5B68CF
:104A80001B0C03F0030301335B003B63FA6B3B6BCE
:104A9000B2FBF3F3BB6302E0054BBB6300BFBB6B30
:104AA00018464037BD46BDE8B08F00BF0038024011
:104AB0000024F40040787D0180B400AF034B1B68F4
:104AC0001846BD465DF8047B704700BFD403002044
:104AD00080B500AFFFF7F0FF0246054B9B689B0ACD
:104AE00003F007030349CB5C22FA03F3184680BDA9
:104AF0000038024034B3000880B483B000AF78605F
:104B000039607B680F221A60124B9B6803F0030226
:104B10007B685A600F4B9B6803F0F0027B689A60D9
:104B20000C4B9B6803F4E0527B68DA60094B9B688E
:104B3000DB0803F4E0527B681A61074B1B6803F043
:104B400007023B681A6000BF0C37BD465DF8047B66
:104B5000704700BF00380240003C024080B582B080
:104B600000AF78607B68002B01D101237BE07B687C
:104B70005B6A002B08D17B685B68B3F5827F09D044
:104B80007B680022DA6105E07B6800221A617B689D
:104B900000225A617B6800229A627B6893F8513048
:104BA000DBB2002B06D17B68002283F850207868A6
:104BB000FEF7B2F97B68022283F851207B681B68FC
:104BC0001A687B681B6822F040021A607B685B6889
:104BD00003F482727B689B6803F404431A437B6886
:104BE000DB6803F400631A437B681B6903F002036C
:104BF0001A437B685B6903F001031A437B689B6976
:104C000003F400731A437B68DB6903F038031A432B
:104C10007B681B6A03F0800342EA03017B689B6A9E
:104C200003F400527B681B680A431A607B689B6927
:104C30001B0C03F004017B685B6A03F010027B68C5
:104C40001B680A435A607B681B68DA697B681B68CB
:104C500022F40062DA617B6800225A657B680122D7
:104C600083F85120002318460837BD4680BD80B523
:104C700088B000AFF860B9603B601346FB8000234A
:104C8000FB77FB6893F85030012B01D1022326E11A
:104C9000FB68012283F85020FEF772FCB861FB88A4
:104CA000FB82FB6893F85130DBB2012B02D0022368
:104CB000FB770BE1BB68002B02D0FB88002B02D1F5
:104CC0000123FB7702E1FB68032283F85120FB6894
:104CD00000225A65FB68BA681A63FB68FA889A86EC
:104CE000FB68FA88DA86FB6800229A63FB68002278
:104CF0009A87FB680022DA87FB6800225A64FB6807
:104D000000221A64FB689B68B3F5004F0FD1FB6863
:104D10001B681A68FB681B6822F040021A60FB6877
:104D20001B681A68FB681B6842F480421A60FB68C3
:104D30001B681B6803F04003402B07D0FB681B680F
:104D40001A68FB681B6842F040021A60FB68DB6867
:104D5000B3F5006F4BD1FB685B68002B02D0FB8A78
:104D6000012B3ED1FB681B6B1A88FB681B68DA605D
:104D7000FB681B6B9A1CFB681A63FB68DB8E9BB29B
:104D8000013B9AB2FB68DA862BE0FB681B689B68E4
:104D900003F00203022B12D1FB681B6B1A88FB681D
:104DA0001B68DA60FB681B6B9A1CFB681A63FB6864
:104DB000DB8E9BB2013B9AB2FB68DA8611E0FEF70C
:104DC000DFFB0246BB69D31A3A689A4203D83B68B4
:104DD000B3F1FF3F02D13B68002B02D10323FB77E5
:104DE00074E0FB68DB8E9BB2002BCED14CE0FB68FD
:104DF0005B68002B02D0FB8A012B40D1FB681A6B49
:104E0000FB681B680C3312781A70FB681B6B5A1C0A
:104E1000FB681A63FB68DB8E9BB2013B9AB2FB68AE
:104E2000DA862CE0FB681B689B6803F00203022B08
:104E300013D1FB681A6BFB681B680C3312781A706D
:104E4000FB681B6B5A1CFB681A63FB68DB8E9BB20A
:104E5000013B9AB2FB68DA8611E0FEF791FB02464D
:104E6000BB69D31A3A689A4203D83B68B3F1FF3F53
:104E700002D13B68002B02D10323FB7726E0FB68BD
:104E8000DB8E9BB2002BCDD1BA693968F86800F08F
:104E9000B3F80346002B02D0FB6820225A65FB685A
:104EA0009B68002B0AD100233B61FB681B68DB6811
:104EB0003B61FB681B689B683B613B69FB685B6D02
:104EC000002B02D00123FB7700E000BFFB6801222A
:104ED00083F85120FB68002283F85020FB7F18469E
:104EE0002037BD4680BD000080B588B000AFF860B7
:104EF000B9603B601346FB71FEF742FB0246BB6A9A
:104F00009B1A3A681344FB61FEF73AFBB861394BD0
:104F10001B685B011B0DFA6902FB03F37B6154E024
:104F20003B68B3F1FF3F50D0FEF72AFB0246BB6956
:104F3000D31AFA699A4202D9FB69002B3DD1FB686A
:104F40001B685A68FB681B6822F0E0025A60FB6825
:104F50005B68B3F5827F11D1FB689B68B3F5004FA6
:104F600004D0FB689B68B3F5806F07D1FB681B68B2
:104F70001A68FB681B6822F040021A60FB689B6A93
:104F8000B3F5005F0FD1FB681B681A68FB681B68EC
:104F900022F400521A60FB681B681A68FB681B68E1
:104FA00042F400521A60FB68012283F85120FB682A
:104FB000002283F85020032317E07B69002B01D1E6
:104FC0000023FB617B69013B7B61FB681B689A687E
:104FD000BB681340BA689A420CBF01230023DBB2BE
:104FE0001A46FB799A429BD1002318462037BD46CA
:104FF00080BD00BFD403002080B588B002AFF86048
:10500000B9607A601B4B1B681B4AA2FB03235B0D34
:105010004FF47A7202FB03F37B61FB685B68B3F5C4
:10502000827F12D17B680093BB6800228021F868E0
:10503000FFF75AFF0346002B16D0FB685B6D43F069
:105040002002FB685A6503230FE07B69002B0AD01E
:105050007B69013B7B61FB681B689B6803F08003F5
:10506000802BF2D000E000BF002318461837BD4661
:1050700080BD00BFD4030020819F5E1680B582B042
:1050800000AF78607B68002B01D1012341E07B6891
:1050900093F83D30DBB2002B06D17B68002283F809
:1050A0003C207868FDF780FF7B68022283F83D2072
:1050B0007B681A687B6804331946104600F0E6FCEA
:1050C0007B68012283F846207B68012283F83E201A
:1050D0007B68012283F83F207B68012283F840200F
:1050E0007B68012283F841207B68012283F84220FB
:1050F0007B68012283F843207B68012283F84420E7
:105100007B68012283F845207B68012283F83D20DB
:10511000002318460837BD4680BD000080B485B026
:1051200000AF78607B6893F83D30DBB2012B01D093
:10513000012344E07B68022283F83D207B681B68E2
:10514000DA687B681B6842F00102DA607B681B68E2
:105150001E4A934218D07B681B68B3F1804F13D06E
:105160007B681B681A4A93420ED07B681B68194AF9
:10517000934209D07B681B68174A934204D07B682E
:105180001B68164A934211D17B681B689B6803F029
:105190000703FB60FB68062B10D07B681B681A684E
:1051A0007B681B6842F001021A6007E07B681B689D
:1051B0001A687B681B6842F001021A6000231846D7
:1051C0001437BD465DF8047B704700BF0000014006
:1051D0000004004000080040000C00400040014076
:1051E00080B483B000AF78607B681B68DA687B6846
:1051F0001B6822F00102DA607B681B681A6A41F2C0
:1052000011131340002B0FD17B681B681A6A40F200
:1052100044431340002B07D17B681B681A687B68E6
:105220001B6822F001021A607B68012283F83D208E
:10523000002318460C37BD465DF8047B704780B5E7
:1052400082B000AF78607B68002B01D1012341E080
:105250007B6893F83D30DBB2002B06D17B680022DF
:1052600083F83C20786800F039F87B68022283F8E4
:105270003D207B681A687B6804331946104600F0AD
:1052800005FC7B68012283F846207B68012283F8B5
:105290003E207B68012283F83F207B68012283F84F
:1052A00040207B68012283F841207B68012283F83B
:1052B00042207B68012283F843207B68012283F827
:1052C00044207B68012283F845207B68012283F813
:1052D0003D20002318460837BD4680BD80B483B00A
:1052E00000AF786000BF0C37BD465DF8047B7047A7
:1052F00080B584B000AF786039603B68002B09D17D
:105300007B6893F83E30DBB2012B14BF01230023EE
:10531000DBB222E03B68042B09D17B6893F83F3075
:10532000DBB2012B14BF01230023DBB215E03B6885
:10533000082B09D17B6893F84030DBB2012B14BFF6
:1053400001230023DBB208E07B6893F84130DBB235
:10535000012B14BF01230023DBB2002B01D001235A
:1053600068E03B68002B04D17B68022283F83E2072
:1053700013E03B68042B04D17B68022283F83F20B2
:105380000BE03B68082B04D17B68022283F84020A5
:1053900003E07B68022283F841207B681B680122BE
:1053A0003968184600F018FE7B681B68234A934250
:1053B00007D17B681B685A6C7B681B6842F400420B
:1053C0005A647B681B681D4A934218D07B681B682F
:1053D000B3F1804F13D07B681B68194A93420ED0FB
:1053E0007B681B68174A934209D07B681B68164A82
:1053F000934204D07B681B68144A934211D17B68A6
:105400001B689B6803F00703FB60FB68062B10D04A
:105410007B681B681A687B681B6842F001021A608F
:1054200007E07B681B681A687B681B6842F0010212
:105430001A60002318461037BD4680BD00000140A9
:105440000004004000080040000C00400040014003
:1054500080B582B000AF786039607B681B6800223D
:105460003968184600F0B8FD7B681B68294A9342EA
:1054700017D17B681B681A6A41F211131340002B85
:105480000FD17B681B681A6A40F244431340002B1B
:1054900007D17B681B685A6C7B681B6822F400424A
:1054A0005A647B681B681A6A41F211131340002B7F
:1054B0000FD17B681B681A6A40F244431340002BEB
:1054C00007D17B681B681A687B681B6822F00102A1
:1054D0001A603B68002B04D17B68012283F83E20D0
:1054E00013E03B68042B04D17B68012283F83F2042
:1054F0000BE03B68082B04D17B68012283F8402035
:1055000003E07B68012283F8412000231846083716
:10551000BD4680BD0000014080B582B000AF78601C
:105520007B681B681B6903F00203022B22D17B6896
:105530001B68DB6803F00203022B1BD17B681B682E
:105540006FF002021A617B6801221A777B681B6880
:105550009B6903F00303002B03D0786800F077FA0F
:1055600005E0786800F069FA786800F07AFA7B68FC
:1055700000221A777B681B681B6903F00403042B65
:1055800022D17B681B68DB6803F00403042B1BD16A
:105590007B681B686FF004021A617B6802221A772D
:1055A0007B681B689B6903F44073002B03D0786809
:1055B00000F04DFA05E0786800F03FFA786800F0F6
:1055C00050FA7B6800221A777B681B681B6903F01E
:1055D0000803082B22D17B681B68DB6803F00803F3
:1055E000082B1BD17B681B686FF008021A617B686F
:1055F00004221A777B681B68DB6903F00303002B26
:1056000003D0786800F023FA05E0786800F015FA16
:10561000786800F026FA7B6800221A777B681B689E
:105620001B6903F01003102B22D17B681B68DB6819
:1056300003F01003102B1BD17B681B686FF0100266
:105640001A617B6808221A777B681B68DB6903F4A0
:105650004073002B03D0786800F0F9F905E0786812
:1056600000F0EBF9786800F0FCF97B6800221A770B
:105670007B681B681B6903F00103012B0ED17B685B
:105680001B68DB6803F00103012B07D17B681B68F3
:105690006FF001021A617868FDF734FB7B681B68C4
:1056A0001B6903F08003802B0ED17B681B68DB68CD
:1056B00003F08003802B07D17B681B686FF08002AA
:1056C0001A61786800F026FD7B681B681B6903F08F
:1056D0004003402B0ED17B681B68DB6803F040035E
:1056E000402B07D17B681B686FF040021A61786815
:1056F00000F0C1F97B681B681B6903F02003202BB5
:105700000ED17B681B68DB6803F02003202B07D1D8
:105710007B681B686FF020021A61786800F0F0FC6B
:1057200000BF0837BD4680BD80B586B000AFF860C9
:10573000B9607A600023FB75FB6893F83C30012B5D
:1057400001D10223AEE0FB68012283F83C207B6894
:105750000C2B00F29F8001A252F823F09157000811
:10576000955800089558000895580008D15700082A
:1057700095580008955800089558000813580008D7
:105780009558000895580008955800085358000887
:10579000FB681B68B968184600F0F8F9FB681B68DD
:1057A0009A69FB681B6842F008029A61FB681B68F3
:1057B0009A69FB681B6822F004029A61FB681B6807
:1057C0009969BB681A69FB681B680A439A6164E0BF
:1057D000FB681B68B968184600F03EFAFB681B6856
:1057E0009A69FB681B6842F400629A61FB681B6857
:1057F0009A69FB681B6822F480629A61FB681B68E7
:105800009969BB681B691A02FB681B680A439A61A5
:1058100043E0FB681B68B968184600F089FAFB682A
:105820001B68DA69FB681B6842F00802DA61FB68F2
:105830001B68DA69FB681B6822F00402DA61FB6806
:105840001B68D969BB681A69FB681B680A43DA617F
:1058500023E0FB681B68B968184600F0D3FAFB68C0
:105860001B68DA69FB681B6842F40062DA61FB6856
:105870001B68DA69FB681B6822F48062DA61FB68E6
:105880001B68D969BB681B691A02FB681B680A435D
:10589000DA6102E00123FB7500BFFB68002283F898
:1058A0003C20FB7D18461837BD4680BD80B584B0CE
:1058B00000AF786039600023FB737B6893F83C305D
:1058C000012B01D10223B4E07B68012283F83C2044
:1058D0007B68022283F83D207B681B689B68BB6065
:1058E000BB6823F07703BB60BB6823F47F43BB60D6
:1058F0007B681B68BA689A603B681B68B3F5005FF9
:105900003ED0B3F5005F00F28780B3F5805F00F012
:105910008680B3F5805F7FD8702B1AD0702B7BD830
:10592000602B50D0602B77D8502B3CD0502B73D8A5
:10593000402B58D0402B6FD8302B64D0302B6BD8F5
:10594000202B60D0202B67D8002B5CD0102B5AD096
:1059500062E07B6818683B6899683B685A683B68F6
:10596000DB6800F019FB7B681B689B68BB60BB6849
:1059700043F07703BB607B681B68BA689A604FE0AE
:105980007B6818683B6899683B685A683B68DB68C5
:1059900000F002FB7B681B689A687B681B6842F416
:1059A00080429A603CE07B6818683B6859683B68B5
:1059B000DB681A4600F076FA7B681B6850211846AF
:1059C00000F0CFFA2CE07B6818683B6859683B68A8
:1059D000DB681A4600F095FA7B681B686021184660
:1059E00000F0BFFA1CE07B6818683B6859683B68A8
:1059F000DB681A4600F056FA7B681B68402118469F
:105A000000F0AFFA0CE07B681A683B681B68194627
:105A1000104600F0A6FA03E00123FB7300E000BF8C
:105A20007B68012283F83D207B68002283F83C20BC
:105A3000FB7B18461037BD4680BD80B483B000AFF5
:105A4000786000BF0C37BD465DF8047B704780B4BA
:105A500083B000AF786000BF0C37BD465DF8047BB3
:105A6000704780B483B000AF786000BF0C37BD468C
:105A70005DF8047B704780B483B000AF786000BFEE
:105A80000C37BD465DF8047B7047000080B485B0DC
:105A900000AF786039607B681B68FB607B68344AC4
:105AA00093420FD07B68B3F1804F0BD07B68314AB3
:105AB000934207D07B68304A934203D07B682F4AD9
:105AC000934208D1FB6823F07003FB603B685B687E
:105AD000FA681343FB607B68254A93421BD07B68BE
